:03000000020335C3
:0100030032CA
:01000B0032C2
:0100130032BA
:01001B0032B2
:0100230032AA
:10005B0002007575CDFE75CCB275CFFE75CEB2753F
:10006B00F98075C980D2ECD2C82275E900D2A6C03E
:10007B00E0C0D0E53045314532601574FF1530B521
:10008B0030071531B53102153212010DF5F580042B
:10009B00C2C8D2A4D0D0D0E0C2A632758400758578
:1000AB000075910075920075A40075A50075B100DF
:1000BB0075B2002210990280FBF5992210980280EC
:1000CB00FBE5992275BD0075BF0075BE7075BD034C
:1000DB007598525391FC5392FC2243841043851024
:1000EB0075A12875970475F5802290FFDEE0440812
:1000FB00F02253A4CB43A53443A40853A5F775E2D0
:10010B00D022F5E3E5E130E7FBF5E1E5E322C2A41C
:10011B00740612010DD2A422C2A4740512010D742F
:10012B005512010DD2A420E0EF22001020304050D8
:10013B0060708191A1B1C1D1E1F112023222524220
:10014B0072629383B3A3D3C3F3E3243404146474B0
:10015B004454A5B58595E5F5C5D5362616067666C0
:10016B005646B7A79787F7E7D7C748586878081850
:10017B002838C9D9E9F98999A9B95A4A7A6A1A0A60
:10018B003A2ADBCBFBEB9B8BBBAB6C7C4C5C2C3CF0
:10019B000C1CEDFDCDDDADBD8D9D7E6E5E4E3E2E00
:1001AB001E0EFFEFDFCFBFAF9F8F9181B1A1D1C1EA
:1001BB00F1E110003020504070608393A3B3C3D3A0
:1001CB00E3F30212223242526272B5A59585F5E530
:1001DB00D5C53424140474645444A7B78797E7F740
:1001EB00C7D72636061666764656D9C9F9E99989D0
:1001FB00B9A95848786818083828CBDBEBFB8B9BE0
:10020B00ABBB4A5A6A7A0A1A2A3AFDEDDDCDBDAD6F
:10021B009D8D7C6C5C4C3C2C1C0CEFFFCFDFAFBF7F
:10022B008F9F6E7E4E5E2E3E0E1E0021426384A576
:10023B00C6E708294A6B8CADCEEF31107352B594DB
:10024B00F7D639187B5ABD9CFFDE62432001E6C707
:10025B00A4856A4B2809EECFAC8D53721130D7F6BB
:10026B0095B45B7A1938DFFE9DBCC4E586A7406167
:10027B000223CCED8EAF48690A2BF5D4B79671509B
:10028B003312FDDCBF9E79583B1AA687E4C52203C7
:10029B006041AE8FECCD2A0B684997B6D5F413327B
:1002AB0051709FBEDDFC1B3A597888A9CAEB0C2D07
:1002BB004E6F80A1C2E304254667B998FBDA3D1C5B
:1002CB007F5EB190F3D235147756EACBA8896E4F87
:1002DB002C0DE2C3A08166472405DBFA99B85F7E3B
:1002EB001D3CD3F291B0577615344C6D0E2FC8E9E7
:1002FB008AAB44650627C0E182A37D5C3F1EF9D81B
:10030B00BB9A75543716F1D0B3922E0F6C4DAA8B46
:10031B00E8C926076445A283E0C11F3E5D7C9BBAFA
:10032B00D9F81736557493B2D1F075817F1200A6A8
:10033B001200F51200CF1200E512005E1200FDC292
:10034B00C8D2AF20983320B0FA30B0FDC2C8D2A4C7
:10035B00C2A4740312010D740012010D740012017A
:10036B000D74FF12010D75323F7531FF753000743E
:10037B000012010DD2C802034E1200C7B423C4C22F
:10038B00C8D2A41200C7B43024C2A4749F12010DAA
:10039B00745512010D1200BF745512010D1200BFDE
:1003AB00745512010D1200BFD2A402034EB43117C3
:1003BB00120119C2A474C712010DD2A41201237425
:1003CB00011200BF02034EB43235120119C2A474DC
:1003DB000212010D1200C712010D1200C712010DFE
:1003EB001200C712010D1200C7F81200C712010D3F
:1003FB00D8F8D2A412012374011200BF02034EB429
:10040B00332CC2A4740312010D1200C712010D127A
:10041B0000C712010D1200C712010D1200C7F874AC
:10042B005512010D1200BFD8F6D2A402034EB434FC
:10043B0036C2C8D2A4C2A4740312010D1200C71293
:10044B00010D1200C712010D1200C712010D12008F
:10045B00C7F5321200C7F5311200C7F53074001220
:10046B00010DD2C802034EB4355C1200C7FD120059
:10047B00C7FC1200C7FB0B0C0DE4FFFEC2A47403F8
:10048B0012010DE412010DE412010DE412010DF540
:10049B00E38019E5E130E7FBF5E1E5E3F5E36FF820
:1004AB00900135936EFFE890023593FEDBE5DCE3BC
:1004BB00DDE1E5E130E7FBF5E1D2A4EF1200BFEEA1
:1004CB001200BF02034EB43635120119C2A47402D6
:1004DB0012010D1200C712010D1200C712010D12ED
:1004EB0000C712010D1200C7F97800E912010DD8EF
:1004FB00FAD2A412012374011200BF02034E0203AD
:01050B004EA1
:00000001FF
