:03000000020C5F90
:03000300020E18D2
:01000B0032C2
:03001300020E24B6
:03001B00020DF1E2
:0100230032AA
:03005B0002078217
:10005E0030313233343536373839414243444546F0
:10006E003031323334353637383961626364656620
:10007E000057454C434F4D45212020202020202065
:10008E0020005375706572205265666C6F77212063
:10009E0020200053657474696E673A2050726F6643
:1000AE0020202000537461727420202020202020F4
:1000BE0053746F700053544D503A20202053544DBA
:1000CE003A202020730052544D503A202020525492
:1000DE004D3A20202073004F4C443A202020204ED1
:1000EE0045573A20202020004D4F444946593A5456
:1000FE00454D505F534F414B004D4F444946593A81
:10010E0054494D455F534F414B004D4F444946595D
:10011E003A54454D505F52464C57004D4F44494658
:10012E00593A54454D505F534F414B004D4F444942
:10013E0046593A54454D505F534F414B0054454D2F
:10014E00503A20202054494D453A20202000535447
:10015E004D503A2020202052414D50494E470053D9
:10016E00544D3A2020207320534F414B494E4700A7
:10017E0052544D503A2020202052414D50494E4766
:10018E000052544D3A20202073205245464C4F5772
:10019E0020005346543A2020202020434F4F4C49F4
:1001AE004E470020202020202020202046494E4966
:1001BE00534820004572726F72205761726E696EDD
:1001CE00672120200054454D502053656E73696E93
:1001DE006720455252007812D8FE22C000784AD8C5
:1001EE00FED000227A2879FA78B8D8FED9FADAF653
:1001FE0022C000C001790A78B8D8FED9FADAF6D052
:10020E0001D00022D2831201E9C2831201E922A297
:10021E00E792B0A2E69287A2E59286A2E4928512B8
:10022E000212A2E392B0A2E29287A2E19286A2E02B
:10023E00928512021222D28102021DC28102021D79
:10024E00C283C282C0027A281201FFD00274331216
:10025E00024974331202497432120249742812028E
:10026E0049740C1202497401120249C0027A021238
:10027E0001FFD00222E4936006120244A380F6220C
:10028E0044404480020249C0E0E8C4540F44301296
:10029E000244E8540F4430120244D0E022C0E0E899
:0A02AE00540F4430120244D0E02245
:1002B800C0E0C0D0C000C001C002E4F562F563F53B
:1002C80064F565F5667A20E55DA2E77904785AE673
:1002D80033F608D9FA79057862E636D4F608D9F9FA
:1002E800DAE5D002D001D000D0D0D0E022C0E0C002
:1002F800D0C000C001C002E4F562F563F564F5659D
:10030800F5667A20E55DA2E77904785AE633F608BF
:10031800D9FA79057862C0D0E6243320E70224D0E0
:1003280020E30224FDD0D033F608D9EADAD6D00289
:10033800D001D000D0D0D0E022C0E0C0D0C000C0F2
:1003480001C0027A207905C37866E613C0D030E789
:100358000224D030E30224FDF618D0D0D9EC790479
:10036800785DE613F618D9FADADBD002D001D000AE
:10037800D0D0D0E022C0E0C0D0E55A255EF55AE5DD
:100388005B355FF55BE55C3560F55CE55D3561F532
:100398005DD0D0D0E022C0E0C0D0C3E55A955EF56C
:1003A8005AE55B955FF55BE55C9560F55CE55D9509
:1003B80061F55DD0D0D0E022C0E0C0D0C3E55A9549
:1003C8005EE55B955FE55C9560E55D95619202D0C1
:1003D800D0D0E022C0E0C0D0C3E55E955AE55F9575
:1003E8005BE560955CE561955D9202D0D0D0E02236
:1003F800C0E0C0D0C202C3E55E955A7014E55F95AF
:100408005B700EE560955C7008E561955D7002D2E1
:1004180002D0D0D0E0221203F82002030203DC222B
:100428001203F82002030203C022C0E0C0F0C0D0CB
:10043800C000C001C002C003E55A855EF0A4F8A957
:10044800F0E55B855EF0A429F9E435F0FAE55A8514
:100458005FF0A429F9E5F03AFAE433FBE55C855E40
:10046800F0A42AFAE5F03BFBE55B855FF0A42AFAE5
:10047800E5F03BFBE55A8560F0A42AFAE5F03BFB82
:10048800E55D855EF0A42BFBE55C855FF0A42BFBA6
:10049800E55B8560F0A42BFBE55A8561F0A42BFB96
:1004A8008B5D8A5C895B885AD003D002D001D0006A
:1004B800D0D0D0F0D0E022C0E0C0D0C000C001C091
:1004C80002C003C0047C20E4F8F9FAFBC3E55A3300
:1004D800F55AE55B33F55BE55C33F55CE55D33F5D3
:1004E8005DE833F8E933F9EA33FAEB33FBC3E8950F
:1004F8005EE9955FEA9560EB95614013E8955EF8D3
:10050800E9955FF9EA9560FAEB9561FB435A01DCDE
:10051800BBD004D003D002D001D000D0D0D0E0228C
:10052800C0E090FFDEE04408F0D0E022758400755A
:10053800850075910075920075A40075A50075B1C8
:100548000075B200224384015385FE439180539283
:100558007F43A40353A5FCD2C275A12075A30F75D0
:080568008E05E58E30E3FB2255
:1005700075BD0075BF0075BE3075BD0375985253CB
:1005800091FC5392FC2210990280FBF59922E4938E
:100590006006120586A380F622C0E0E8C4540F442A
:1005A00030120586E8540F4430120586D0E02274DC
:1005B0000D120586740A1205862290005EE565C458
:1005C000540F93120586E565540F93120586E56472
:1005D000C4540F93120586E564540F93120586E503
:1005E00063C4540F93120586E563540F9312058676
:1005F000E562C4540F93120586E562540F93120509
:02060000862250
:10060200755A00755B00755C00755D0085C75A7F81
:10061200FF1201E485C75E755F00756000756100B9
:1006220012037D1201E4DFEC755E10755F007560E8
:10063200007561001204BF755EE8755F8075600029
:10064200756100120432755E00755F107560007589
:1006520061001204BF755E3C755F007560007561D4
:100662000012039E755E0E755F1D75600075610058
:10067200120432755E10755F277560007561001295
:1006820004BF755EB4755F0075600075610012038A
:100692009E854D61854C60854B5F854A5E12037D68
:1006A2001202B81205BA1205AF755E64755F007565
:1006B20060007561001204BF755E5E755F01756052
:1006C200007561001203C0200203020602855D511B
:1006D200855C50855B4F855A4E22755A00755B00CA
:1006E200755C00755D0085C75A7FFF1201E485F4D1
:1006F2005E755F0075600075610012037D1201E492
:10070200DFEC755E10755F007560007561001204A4
:10071200BF755EE8755F8075600075610012043216
:10072200755E00755F107560007561001204BF751B
:100732005E3C755F0075600075610012039E755E18
:10074200A4755F6A75600075610012039E755EF4A0
:10075200755F0175600075610012039E855D4D85B0
:090762005C4C855B4B855A4A2270
:10076B0075CDFF75CC5975CFFF75CE5975F9807561
:10077B00C980D2ECD2C82275E900D2A6C0E0C0D0A5
:10078B00E5684569456A601574FF1568B568071516
:10079B0069B56902156A1207FAF5F58004C2C8D269
:1007AB00A4D0D0D0E0C2A63243841043851075A1EB
:1007BB002875970475F5802253A4CB43A53443A425
:1007CB000853A5F775E2D0227A3279C878E6D8FEBD
:1007DB00D9FADAF6227A3279C87896D8FED9FADACB
:1007EB00F6227A3279C8785AD8FED9FADAF622F597
:1007FB00E3E5E130E7FBF5E1E5E322C2C8D2A475FE
:10080B005A00755B00755C00755D00856B5A1202B2
:10081B00B8756400756200E563540F756300F5628B
:10082B00120341855A6DE56DB40003D20622755A49
:10083B0000755B00755C00755D00856D5A755E001B
:10084B00755F00756000756100755EA0755F8C1239
:10085B000432755E38755F97756008756100120319
:10086B007DC2A474031207FAE55C1207FAE55B126A
:10087B0007FAE55A1207FA756A0075698C7568A054
:10088B0074001207FAD2C822C2C8D2A4755A0075D6
:10089B005B00755C00755D00856B5A1202B8756460
:1008AB0000756300E562C4540FF562120341855A6B
:1008BB006DE56DB40003D20722B401030209247560
:1008CB005A00755B00755C00755D00856D5A755E31
:1008DB0000755F00756000756100755E24755F5E65
:1008EB00120432755E40755F7E756005756100128E
:1008FB00037DC2A474031207FAE55C1207FAE55BE9
:10090B001207FAE55A1207FA756A0075695075688D
:10091B00C374001207FAD2C822C2C8D2A4755A00F7
:10092B00755B00755C00755D00856B5A1202B875BE
:10093B006400756300E562540FF562120341855A3A
:10094B006CE56C755A00755B00755C00755D008518
:10095B006C5A755E00755F00756000756100755EA1
:10096B00FC755F53120432755EB0755FA77560023C
:10097B0075610012037D755E00755F007560007513
:10098B006100856E5E12037D756E00C2A474031246
:10099B0007FAE55C1207FAE55B1207FAE55A12074C
:1009AB00FA756A007569537568FC74001207FAD200
:1009BB00C8D20522300503C20522C2C8D2A4755A7B
:1009CB0000755B00755C00755D00856B5A1202B893
:1009DB00756400756300E562540FF562120341857F
:1009EB005A6CE56CB4000420070122755A00755B44
:1009FB0000755C00755D00856C5A755E00755F0057
:100A0B00756000756100755E30755F431204327559
:100A1B005EFF755F0075600075610012037DC2A4F7
:100A2B0074031207FAE55C1207FAE55B1207FAE5A5
:100A3B005A1207FA756A0075693E7568A47400123C
:100A4B0007FAD2C8221208062006031207D3C206E1
:100A5B001208932007031207ED1209BFC2071207F2
:100A6B00ED22755AD0755B48755C0A755D00755E35
:100A7B00B8755F88756000756100120B841207D31F
:100A8B0022755A70755BD5755C0A755D00755E0ACB
:100A9B00755F2B756000756100120B841207ED22D8
:100AAB00755A4C755B2C755C0B755D00755E6875C6
:100ABB005F42756000756100120B841207D32275BB
:100ACB005A08755B8D755C0B755D00755E78755F8F
:100ADB0069756000756100120B841207D322755A79
:100AEB00F0755B0D755C0C755D00755EA8755F61CF
:100AFB00756000756100120B841207D322755AF0D2
:100B0B00755B8A755C0C755D00755E78755F6975D4
:100B1B006000756100120B841207D322755AA875F9
:100B2B005B13755C0D755D00755EA8755F61756017
:100B3B0000756100120B841207D322755A08755B7E
:100B4B0081755C0D755D00755E98755F3A7560001B
:100B5B00756100120B841207E022755A10755BD376
:100B6B00755C0D755D00755EB0755F3675600075F3
:100B7B006100120B841207ED22C2C8D2A4C2A47466
:100B8B00031207FAE55C1207FAE55B1207FAE55A5E
:100B9B001207FA756A00855F69855E687400120733
:040BAB00FAD2C82290
:100BAF00C0E0120BC0E570B4000122120C11D0E0AE
:100BBF0022757000C3E5C594A3400475700722C366
:100BCF00E5C59491400475700622C3E5C59478403D
:100BDF000475700522C3E5C5946240047570042244
:100BEF00C3E5C59444400475700322C3E5C594332F
:100BFF00400475700222C3E5C5941340047570015B
:100C0F002222C3E5C694C4400475700E22C3E5C604
:100C1F0094AF400475700D22C3E5C69490400475DF
:100C2F00700C22C3E5C69471400475700B22C3E5A6
:100C3F00C69452400475700A22C3E5C6943340042B
:100C4F0075700922C3E5C6941440047570082222FA
:100C5F0075817F12053412024E12057012054DC0B8
:100C6F00E0740114120290D0E0C083C082C0E09003
:100C7F00007F120283D0E0D082D083C0E0740114D1
:100C8F0012028ED0E0C083C082C0E09000901202AA
:100C9F0083D0E0D082D083120D491207B312076BB5
:100CAF001207C3120CEC120CEFC2C8D2AFC2A720AE
:100CBF000101003004F9C2040567E567B405097541
:100CCF006700300803120DE180E5E589540F4410E9
:100CDF00F589758D6F758BFFD2ABD28E22D2A8227C
:100CEF00D2AA22C0E0740614120290D0E085515DA2
:100CFF0085505C854F5B854E5A1202B8C000A863C1
:100D0F001202ABD000C000A862120295D000C0E062
:100D1F00740E14120290D0E0755D00755C00755B67
:100D2F000085315A1202B8C000A8631202ABD0007E
:100D3F00C000A862120295D00022753100753900EB
:100D4F00753800753700753696754100754000751A
:100D5F003F00753ED9753D00753C00753B00753AF7
:100D6F003C75450075440075430075424B7549004D
:100D7F0075480075470075463C753300753400752E
:100D8F006B00756E00756700756F00C296C208C262
:100D9F0003C205C206C207C201C0E07401141202E9
:100DAF0090D0E0C083C082C0E090007F120283D059
:100DBF00E0D082D083C0E074011412028ED0E0C064
:100DCF0083C082C0E0900090120283D0E0D082D026
:100DDF008322120A6D854E6B120A50120A8C120A68
:100DEF00AB22758D6F758BFFB2A6C0E0C0D00530FA
:100DFF00E530B4640FD2043003020531753000B210
:100E0F0096120E5BD0D0D0E032C288120ACA120AF4
:100E1F00E9120CD932C28AC28E120D4932C0E012C9
:100E2F000BAFE533755A00755B00755C00755D009F
:100E3F0085705A1202B8C0E0740A14120290D0E002
:100E4F00C000A862120295D000D0E022E534B400B1
:100E5F00028003020F25D203D208D2A71206DC129A
:100E6F00060285515D85505C854F5B854E5A8539ED
:100E7F006185386085375F85365E1203C0C0E074C8
:100E8F000114120290D0E0C083C082C0E090014BE9
:100E9F00120283D0E0D082D083C0E074011412021A
:100EAF008ED0E0C083C082C0E090015C120283D07C
:100EBF00E0D082D083120CF2C0E074061412028EBE
:100ECF00D0E085395D85385C85375B85365A1202EF
:100EDF00B8C000A8631202ABD000C000A862120213
:100EEF0095D0002002070534853A328026E531B4CB
:100EFF003C2185515D85505C854F5B854E5A7561F0
:100F0F0000756000755F00755E321203C03002031A
:100F1F000211FD02123CB401028003020FCBD53245
:100F2F00050534020FC81206DC12060285515D85D5
:100F3F00505C854F5B854E5A8539618538608537A2
:100F4F005F85365E1203C0C0E0740114120290D0A8
:100F5F00E0C083C082C0E090014B120283D0E0D08A
:100F6F0082D083C0E074011412028ED0E0C083C01F
:100F7F0082C0E090016D120283D0E0D082D0831244
:100F8F000CF2C0E074051412028ED0E0755A007591
:100F9F005B00755C00755D0085325A1202B8C000A7
:100FAF00A8631202ABD000C000A862120295D00055
:100FBF00200204C2A78002D2A702123CB402028010
:100FCF000302106AD2A71206DC12060285515D8554
:100FDF00505C854F5B854E5A854161854060853FEA
:100FEF005F853E5E1203C02002080534854232023F
:100FFF00123CC0E0740114120290D0E0C083C08292
:10100F00C0E090014B120283D0E0D082D083C0E0C9
:10101F0074011412028ED0E0C083C082C0E0900130
:10102F007E120283D0E0D082D083120CF2C0E07423
:10103F00061412028ED0E085415D85405C853F5BD2
:10104F00853E5A1202B8C000A8631202ABD000C08E
:10105F0000A862120295D00002123CB40302800372
:10106F00021110D53205053402110DC0E0740114C0
:10107F00120290D0E0C083C082C0E090014B1202F8
:10108F0083D0E0D082D083C0E074011412028ED0DE
:10109F00E0C083C082C0E090018F120283D0E0D005
:1010AF0082D083120CF21206DC12060285515D8586
:1010BF00505C854F5B854E5A854161854060853F09
:1010CF005F853E5E1203C0C0E074051412028ED01D
:1010DF00E0755A00755B00755C00755D0085325ACE
:1010EF001202B8C000A8631202ABD000C000A86201
:1010FF00120295D000200204C2A78002D2A70212CA
:10110F003CB4040280030211B2C2A71206DC12061D
:10111F000285515D85505C854F5B854E5A854961CF
:10112F0085486085475F85465E1203C0300205051E
:10113F0034753200C0E0740114120290D0E0C08305
:10114F00C082C0E090014B120283D0E0D082D083E6
:10115F00C0E074011412028ED0E0C083C082C0E0E0
:10116F009001A0120283D0E0D082D083120CF2C083
:10117F00E074051412028ED0E0755A00755B00758D
:10118F005C00755D0085465A1202B81202B8C000A5
:10119F00A8631202ABD000C000A862120295D00063
:1011AF0002123CB40502800302123CC2A7C203C262
:1011BF0008C0E0740114120290D0E0C083C082C056
:1011CF00E090014B120283D0E0D082D083C0E07454
:1011DF00011412028ED0E0C083C082C0E09001B132
:1011EF00120283D0E0D082D083120CF2803FC2A7CC
:1011FF00C0E0740114120290D0E0C083C082C0E03E
:10120F009001C2120283D0E0D082D083C0E074017B
:10121F001412028ED0E0C083C082C0E09001D312BE
:0E122F000283D0E0D082D083C208753406223C
:00000001FF
