:03000000020C628D
:03000300020DF0FB
:01000B0032C2
:03001300020DFEDD
:03001B00020DC90A
:0100230032AA
:03005B0002077D1C
:10005E0030313233343536373839414243444546F0
:10006E003031323334353637383961626364656620
:10007E000057454C434F4D45212020202020202065
:10008E0020005375706572205265666C6F77212063
:10009E0020200053657474696E673A2050726F6643
:1000AE0020202000537461727420202020202020F4
:1000BE0053746F700053544D503A20202053544DBA
:1000CE003A202020730052544D503A202020525492
:1000DE004D3A20202073004F4C443A202020204ED1
:1000EE0045573A20202020004D4F444946593A5456
:1000FE00454D505F534F414B004D4F444946593A81
:10010E0054494D455F534F414B004D4F444946595D
:10011E003A54454D505F52464C57004D4F44494658
:10012E00593A54494D455F52464C57004D4F44493C
:10013E0046593A534146450054454D503A202020E9
:10014E0054494D453A2020200053544D503A20201A
:10015E00202052414D50494E470053544D3A2020D5
:10016E00207320534F414B494E470052544D503A45
:10017E002020202052414D50494E470052544D3AB6
:10018E0020202073205245464C4F57200053465492
:10019E003A2020202020434F4F4C494E470020202C
:1001AE002020202020202046494E4953482000453B
:1001BE0072726F72205761726E696E672120200015
:1001CE0054454D502053656E73696E6720455252EB
:1001DE00007812D8FE22C000784AD8FED000227ACB
:1001EE002879FA78B8D8FED9FADAF622C000C0011A
:1001FE00790A78B8D8FED9FADAF6D001D00022D230
:10020E00831201E4C2831201E422A2E792B0A2E6B5
:10021E009287A2E59286A2E4928512020DA2E39243
:10022E00B0A2E29287A2E19286A2E0928512020D1E
:10023E0022D281020218C281020218C283C282C077
:10024E00027A281201FAD002743312024474331265
:10025E00024474321202447428120244740C1202C4
:10026E00447401120244C0027A021201FAD0022230
:10027E00E493600612023FA380F6224440448002BB
:10028E000244C0E0E8C4540F443012023FE8540F59
:10029E00443012023FD0E022C0E0E8540F44301246
:0502AE00023FD0E02238
:1002B300C0E0C0D0C000C001C002E4F55EF55FF548
:1002C30060F561F5627A20E559A2E779047856E68C
:1002D30033F608D9FA7905785EE636D4F608D9F903
:1002E300DAE5D002D001D000D0D0D0E022C0E0C007
:1002F300D0C000C001C002E4F55EF55FF560F561B2
:10030300F5627A20E559A2E779047856E633F608D0
:10031300D9FA7905785EC0D0E6243320E70224D0E9
:1003230020E30224FDD0D033F608D9EADAD6D0028E
:10033300D001D000D0D0D0E022C0E0C0D0C000C0F7
:1003430001C0027A207905C37862E613C0D030E792
:100353000224D030E30224FDF618D0D0D9EC79047E
:100363007859E613F618D9FADADBD002D001D000B7
:10037300D0D0D0E022C0E0C0D0E556255AF556E5EE
:1003830057355BF557E558355CF558E559355DF557
:1003930059D0D0D0E022C0E0C0D0C3E556955AF57D
:1003A30056E557955BF557E558955CF558E559952E
:1003B3005DF559D0D0D0E022C0E0C0D0C3E556955A
:1003C3005AE557955BE558955CE559955D9202D0E2
:1003D300D0D0E022C0E0C0D0C3E55A9556E55B9586
:1003E30057E55C9558E55D95599202D0D0D0E0224F
:1003F300C0E0C0D0C202C3E55A95567014E55B95C0
:1004030057700EE55C95587008E55D95597002D2FA
:1004130002D0D0D0E0221203F32002030203D7223A
:100423001203F32002030203BB22C0E0C0F0C0D0DA
:10043300C000C001C002C003E556855AF0A4F8A964
:10044300F0E557855AF0A429F9E435F0FAE5568525
:100453005BF0A429F9E5F03AFAE433FBE558855A51
:10046300F0A42AFAE5F03BFBE557855BF0A42AFAF2
:10047300E5F03BFBE556855CF0A42AFAE5F03BFB8F
:10048300E559855AF0A42BFBE558855BF0A42BFBBB
:10049300E557855CF0A42BFBE556855DF0A42BFBAB
:1004A3008B598A5889578856D003D002D001D0007F
:1004B300D0D0D0F0D0E022C0E0C0D0C000C001C096
:1004C30002C003C0047C20E4F8F9FAFBC3E5563309
:1004D300F556E55733F557E55833F558E55933F5F0
:1004E30059E833F8E933F9EA33FAEB33FBC3E89518
:1004F3005AE9955BEA955CEB955D4013E8955AF8EC
:10050300E9955BF9EA955CFAEB955DFB435601DCF3
:10051300BBD004D003D002D001D000D0D0D0E02291
:10052300C0E090FFDEE04408F0D0E022758400755F
:10053300850075910075920075A40075A50075B1CD
:100543000075B200224384015385FE439180539288
:100553007F43A40353A5FCD2C275A12075A30F75D5
:080563008E05E58E30E3FB225A
:10056B0075BD0075BF0075BE3075BD0375985253D0
:10057B0091FC5392FC2210990280FBF59922E49393
:10058B006006120581A380F622C0E0E8C4540F4434
:10059B0030120581E8540F4430120581D0E02274EB
:1005AB000D120581740A1205812290005EE561C46B
:1005BB00540F93120581E561540F93120581E56089
:1005CB00C4540F93120581E560540F93120581E516
:1005DB005FC4540F93120581E55F540F931205818D
:1005EB00E55EC4540F93120581E55E540F9312051B
:0205FB0081225B
:1005FD0075560075570075580075590085C7567F9B
:10060D00FF1201DF85C75A755B00755C00755D00D3
:10061D001203781201DFDFEC755A10755B00755C03
:10062D0000755D001204BA755AE8755B80755C0043
:10063D00755D0012042D755A00755B10755C0075A3
:10064D005D001204BA755A3C755B00755C00755DF2
:10065D0000120399755A0E755B1D755C00755D0072
:10066D0012042D755A10755B27755C00755D0012AF
:10067D0004BA755AB4755B00755C00755D001203A4
:10068D0099854D5D854C5C854B5B854A5A12037887
:10069D001202B31205B51205AA755A64755B007581
:1006AD005C00755D001204BA755A5E755B01755C70
:1006BD0000755D001203BB2002030205FD85595133
:1006CD0085585085574F85564E22755600755700E3
:1006DD0075580075590085C7567FFF1201DF85F4E7
:1006ED005A755B00755C00755D001203781201DFB1
:1006FD00DFEC755A10755B00755C00755D001204BA
:10070D00BA755AE8755B80755C00755D0012042D35
:10071D00755A00755B10755C00755D001204BA7535
:10072D005A3C755B00755C00755D00120399755A36
:10073D00A4755B6A755C00755D00120399755AF4BA
:10074D00755B01755C00755D0012039985594D85CA
:09075D00584C85574B85564A2281
:1007660075CDFF75CC5975CFFF75CE5975F9807566
:10077600C980D2ECD2C82275E900D2A6C0E0C0D0AA
:10078600E56445654566601574FF1564B56407152F
:1007960065B5650215661207F5F5F58004C2C8D27F
:1007A600A4D0D0D0E0C2A63243841043851075A1F0
:1007B6002875970475F5802253A4CB43A53443A42A
:1007C6000853A5F775E2D0227A3279C878E6D8FEC2
:1007D600D9FADAF6227A3279C87896D8FED9FADAD0
:1007E600F6227A3279C8785AD8FED9FADAF622F59C
:1007F600E3E5E130E7FBF5E1E5E322C2C8D2A47503
:1008060056007557007558007559008567561202CF
:10081600B3756000755E00E55F540F755F00F55EA9
:1008260012033C855669E569B40003D20622755663
:1008360000755700755800755900856956755A0038
:10084600755B00755C00755D00755AA0755B8C1252
:10085600042D755A38755B97755C08755D00120333
:1008660078C2A474031207F5E5581207F5E5571286
:1008760007F5E5561207F575660075658C7564A073
:1008860074001207F5D2C822C2C8D2A475560075E4
:1008960057007558007559008567561202B3756082
:1008A60000755F00E55EC4540FF55E12033C855685
:1008B60069E569B40003D20722B4010302091F7572
:1008C6005600755700755800755900856956755A52
:1008D60000755B00755C00755D00755A24755B5E7E
:1008E60012042D755A40755B7E755C05755D0012A8
:1008F6000378C2A474031207F5E5581207F5E55705
:100906001207F5E5561207F57566007565507564AC
:10091600C374001207F5D2C822C2C8D2A475560005
:100926007557007558007559008567561202B375DC
:100936006000755F00E55E540FF55E12033C855658
:1009460068E5687556007557007558007559008535
:100956006856755A00755B00755C00755D00755AC2
:10096600FC755B5312042D755AB0755BA7755C0256
:10097600755D00120378755A00755B00755C00752D
:100986005D0085535A120378755300C2A47403128E
:1009960007F5E5581207F5E5571207F5E55612076C
:1009A600F57566007565537564FC74001207F5D21B
:1009B600C8D20522300503C20522C2C8D2A4755684
:1009C600007557007558007559008567561202B3B1
:1009D600756000755F00E55E540FF55E12033C8599
:1009E6005668E568B400042007012275560075575D
:1009F60000755800755900856856755A00755B0074
:100A0600755C00755D00755A30755B4312042D7573
:100A16005AFF755B00755C00755D00120378C2A411
:100A260074031207F5E5581207F5E5571207F5E5C1
:100A3600561207F575660075653E7564A474001256
:100A460007F5D2C8221208012006031207CEC206F5
:100A560012088E2007031207E81209BAC207120706
:100A6600E8227556D075574875580A755900755A53
:100A7600B8755B88755C00755D00120B7F1207CE3A
:100A8600227556707557D575580A755900755A0AE4
:100A9600755B2B755C00755D00120B7F1207E822F3
:100AA60075564C75572C75580B755900755A6875DF
:100AB6005B42755C00755D00120B7F1207CE2275D6
:100AC600560875578D75580B755900755A78755BAC
:100AD60069755C00755D00120B7F1207CE22755694
:100AE600F075570D75580C755900755AA8755B61E8
:100AF600755C00755D00120B7F1207CE227556F0ED
:100B060075578A75580C755900755A78755B6975ED
:100B16005C00755D00120B7F1207CE227556A87514
:100B2600571375580D755900755AA8755B61755C34
:100B360000755D00120B7F1207CE22755608755799
:100B46008175580D755900755A98755B3A755C0034
:100B5600755D00120B7F1207DB227556107557D391
:100B660075580D755900755AB0755B36755C00750C
:100B76005D00120B7F1207E822C2C8D2A4C2A47479
:100B8600031207F5E5581207F5E5571207F5E5567E
:100B96001207F5756600855B65855A647400120751
:090BA600F5D2C822C2C8D2A42273
:100BAF00C0E0120BC3120C14C0027A961201FAD0D5
:100BBF0002D0E022756B00C3E5C594A34004756BAA
:100BCF000722C3E5C594914004756B0622C3E5C5A2
:100BDF0094784004756B0522C3E5C5946240047593
:100BEF006B0422C3E5C594444004756B0322C3E52F
:100BFF00C594334004756B0222C3E5C594134004BA
:100C0F00756B012222C3E5C694C44004756B0E2296
:100C1F00C3E5C694AF4004756B0D22C3E5C694902F
:100C2F004004756B0C22C3E5C694714004756B0BC1
:100C3F0022C3E5C694524004756B0A22C3E5C694DD
:100C4F00334004756B0922C3E5C694144004756BD9
:030C5F0008222246
:100C620075817F12052F12024912056B120548C0C9
:100C7200E074011412028BD0E0C083C082C0E09005
:100C8200007F12027ED0E0D082D083C0E0740114D3
:100C9200120289D0E0C083C082C0E09000901202AC
:100CA2007ED0E0D082D083120D8D1207AE1207667D
:100CB2001207BE120D30120D3375390075380075EA
:100CC2003700753696754100754000753F00753ED8
:100CD200D9753D00753C00753B00753A3C75450081
:100CE20075440075430075424B754900754800759F
:100CF200470075463CC2C8D2AFC2A71201ED20011F
:100D020003020E0B3004F7C2040563E563B4050960
:100D1200756300300803120DB980E3E589540F446E
:100D220010F589758D6F758BFFD2ABD28E22D2A84A
:100D320022D2AA22C0E074061412028BD0E085519E
:100D420059855058854F57854E561202B3C000A898
:100D52005F1202A6D000C000A85E120290D000C0AE
:100D6200E0740E1412028BD0E075590075580075AC
:100D720057008531561202B3C000A85F1202A6D0F6
:100D820000C000A85E120290D000227531007533B7
:100D92000075340075540075550075670075630061
:100DA200756A00755203C296C208C203C205C20622
:100DB200C207C201C2A722120A68854E67120A4BF5
:100DC200120A87120AA622758D6F758BFFB2A6C012
:100DD200E0C0D00530E530B4640FD2043003020520
:100DE20031753000B2961213B7D0D0D0E032C2883B
:100DF200D201120AC5120AE4120D1D32C28AC28E33
:100E0200C2A7120BAA120D8D32E5338003020F61C5
:100E1200B400FAC0E074011412028BD0E0C083C0A7
:100E220082C0E09000C312027ED0E0D082D083C0A4
:100E3200E0740114120289D0E0C083C082C0E09045
:100E420000D412027ED0E0D082D083C0E0740D14B0
:100E5200120289D0E0755600755700755800755911
:100E6200008542561202B3C000A85F1202A6D0004B
:100E7200C000A85E120290D000C0E0740D141202ED
:100E82008BD0E0755600755700755800755900856E
:100E92003A561202B3C000A85F1202A6D000C000E8
:100EA200A85E120290D000C0E0740614120289D02B
:100EB200E0755600755700755800755900853E5605
:100EC2001202B3C000A85F1202A6D000C000A85E42
:100ED200120290D000C0E074061412028BD0E075AA
:100EE200560075570075580075590085365612021E
:100EF200B3C000A85F1202A6D000C000A85E120212
:100F020090D000120BAF75560075570075580075DA
:100F12005900856B56755A0D755B00755C00755DE1
:100F2200001203F330020805331213B00211DE750A
:100F32005600755700755800755900856B56755ADD
:100F42000E755B00755C00755D001203F3300209DB
:100F52007533041213B00211DE0211DE021001B465
:100F620001FAC0E074011412028BD0E0C083C08287
:100F7200C0E09000F612027ED0E0D082D083C0E0C2
:100F8200740114120289D0E0C083C082C0E09000D4
:100F9200E512027ED0E0D082D083C0E07405141244
:100FA2000289D0E08536561202B3C000A85F120251
:100FB200A6D000C000A85E120290D000C0E0740D5E
:100FC20014120289D0E0C000A8551202A6D000C0B7
:100FD20000A854120290D0001211E130021812122D
:100FE2000A1211E130020F12120A1211E130020646
:100FF20012120A020FFB0212DC020D000210A1B44F
:1010020002FAC0E074011412028BD0E0C083C082E5
:10101200C0E090010712027ED0E0D082D083C0E00F
:10102200740114120289D0E0C083C082C0E0900033
:10103200E512027ED0E0D082D083C0E074051412A3
:101042000289D0E0853A561202B3C000A85F1202AC
:10105200A6D000C000A85E120290D000C0E0740DBD
:1010620014120289D0E0C000A8551202A6D000C016
:1010720000A854120290D0001211E130021812128C
:101082000A1211E130020F12120A1211E1300206A5
:1010920012120A02109B0212DC020D00021141B46C
:1010A20003FAC0E074011412028BD0E0C083C08244
:1010B200C0E090011812027ED0E0D082D083C0E05E
:1010C200740114120289D0E0C083C082C0E0900093
:1010D200E512027ED0E0D082D083C0E07405141203
:1010E2000289D0E0853E561202B3C000A85F120208
:1010F200A6D000C000A85E120290D000C0E0740D1D
:1011020014120289D0E0C000A8551202A6D000C075
:1011120000A854120290D0001211E13002181212EB
:101122000A1211E130020F12120A1211E130020604
:1011320012120A02113B0212DC020D000211DEB48D
:1011420004FAC0E074011412028BD0E0C083C082A2
:10115200C0E090012912027ED0E0D082D083C0E0AC
:10116200740114120289D0E0C083C082C0E09000F2
:10117200E512027ED0E0D082D083C0E07405141262
:101182000289D0E08542561202B3C000A85F120263
:10119200A6D000C000A85E120290D000C0E0740D7C
:1011A20014120289D0E0C000A8551202A6D000C0D5
:1011B20000A854120290D0001211E130021812124B
:1011C2000A1211E130020F12120A1211E130020664
:1011D20012120A0211DB0212DC020D00020D0012D1
:1011E2000BAF755600755700755800755900856B21
:1011F20056755A0B755B00755C00755D001203BB7A
:10120200E56BB4000280D822E552B4033DC0027AF5
:10121200FA1201FAD002E56BB40A027400540FF517
:1012220055755202C0E0740D14120289D0E0C0005C
:10123200A8551202A6D000C000A854120290D000F5
:10124200C0027AFA1201FAD00222E552B40246C072
:10125200027AFA1201FAD002E554540FF554E56B02
:10126200B40A027400540FC44554F554755201C0B7
:10127200E0740D14120289D0E0C000A8551202A633
:10128200D000C000A854120290D000C0027AFA1214
:1012920001FAD00222C0027AFA1201FAD002E5540F
:1012A20054F0F554E56BB40A027400540F4554F53A
:1012B20054755203C0E0740D14120289D0E0C000CC
:1012C200A8551202A6D000C000A854120290D00065
:1012D200C0027AFA1201FAD00222E56BB40B0302C1
:1012E2001326E56BB40C0C7400F554F555755203D6
:1012F2000211DEE56BB40D16E533B4040975330053
:101302001213B00211DE05331213B00211DEE533FF
:10131200B400097533041213B00211DE153312132F
:10132200B00211DEE533B400030211DEB4013485EC
:10133200545E85555F756000756100756200120329
:101342003C855636C0E074011412028BD0E0C00016
:10135200A8371202A6D000C000A836120290D00010
:101362000211DEB4021585545E85555F7561007504
:10137200620012033C85563A0211DEB4031885540A
:101382005E85555F75600075610075620012033CF1
:1013920085563E0211DE85545E85555F7560007587
:1013A200610075620012033C8556420211DE7554DB
:1013B2000075550022E534B400028003021487D27E
:1013C20003D208D2A71206D71205FD8551598550BE
:1013D20058854F57854E5685395D85385C85375B14
:1013E20085365A1203BBC0E074011412028BD0E09E
:1013F200C083C082C0E090014612027ED0E0D0825B
:10140200D083C0E0740114120289D0E0C083C0828C
:10141200C0E090015712027ED0E0D082D083120D3C
:1014220036C0E0740614120289D0E0853959853835
:10143200588537578536561202B3C000A85F12028C
:10144200A6D000C000A85E120290D00020020D12A9
:101452000BAA120B030534853A328026E531B43CDF
:1014620021855159855058854F57854E56755D00D7
:10147200755C00755B00755A321203BB30020302C1
:1014820017710217B0B401028003021533D5320B73
:10149200120BAA120B2205340215301206D71205BE
:1014A200FD855159855058854F57854E5685395D72
:1014B20085385C85375B85365A1203BBC0E0740100
:1014C2001412028BD0E0C083C082C0E090014612A9
:1014D200027ED0E0D082D083C0E07401141202896F
:1014E200D0E0C083C082C0E090016812027ED0E0EA
:1014F200D082D083120D36C0E0740514120289D056
:10150200E0755600755700755800755900853256BA
:101512001202B3C000A85F1202A6D000C000A85EEB
:10152200120290D000200204C2A78002D2A70217A2
:10153200B0B4020280030215D8D2A71206D7120550
:10154200FD855159855058854F57854E5685415DC9
:1015520085405C853F5B853E5A1203BB20020E121A
:101562000BAA120B4105348542320217B0C0E07457
:10157200011412028BD0E0C083C082C0E090014609
:1015820012027ED0E0D082D083C0E0740114120235
:1015920089D0E0C083C082C0E090017912027ED07F
:1015A200E0D082D083120D36C0E074061412028994
:1015B200D0E0854159854058853F57853E561202F5
:1015C200B3C000A85F1202A6D000C000A85E12023B
:1015D20090D0000217B0B403028003021684D53201
:1015E2000B120BAA120B600534021681C0E07401C3
:1015F2001412028BD0E0C083C082C0E09001461278
:10160200027ED0E0D082D083C0E07401141202893D
:10161200D0E0C083C082C0E090018A12027ED0E096
:10162200D082D083120D361206D71205FD8551598C
:10163200855058854F57854E5685415D85405C855E
:101642003F5B853E5A1203BBC0E074051412028947
:10165200D0E07556007557007558007559008532EF
:10166200561202B3C000A85F1202A6D000C000A8A2
:101672005E120290D000200204C2A78002D2A7020A
:1016820017B0B404028003021726C2A71206D712AB
:1016920005FD855159855058854F57854E568549C8
:1016A2005D85485C85475B85465A1203BB3002055F
:1016B2000534753200C0E074011412028BD0E0C010
:1016C20083C082C0E090014612027ED0E0D082D078
:1016D20083C0E0740114120289D0E0C083C082C0CA
:1016E200E090019B12027ED0E0D082D083120D36B0
:1016F200C0E0740514120289D0E0755600755700D7
:101702007558007559008546561202B31202B3C0CD
:1017120000A85F1202A6D000C000A85E120290D0FC
:10172200000217B0B4050280030217B0C2A7C203B9
:10173200C208C0E074011412028BD0E0C083C082E0
:10174200C0E090014612027ED0E0D082D083C0E099
:10175200740114120289D0E0C083C082C0E09001FB
:10176200AC12027ED0E0D082D083120D36803FC20E
:10177200A7C0E074011412028BD0E0C083C082C003
:10178200E09001BD12027ED0E0D082D083C0E0742E
:101792000114120289D0E0C083C082C0E09001CE61
:0F17A20012027ED0E0D082D083C20875340622B6
:00000001FF
