:030000000204F106
:0100030032CA
:01000B0032C2
:0100130032BA
:01001B0032B2
:0100230032AA
:01005B003272
:10005C0048656C6C6F20576F726C640057454C434D
:10006C004F4D45212020202020202020005375704A
:10007C006572205265666C6F7721202020005354E6
:10008C004D503A20202053544D3A202020730052DA
:10009C00544D503A20202052544D3A2020207300C9
:1000AC004F4C443A202020204E45573A2020202007
:1000BC00004D4F444946593A54454D505F534F41BA
:1000CC004B004D4F444946593A54494D455F534FA7
:1000DC00414B004D4F444946593A54454D505F529F
:1000EC00464C57004D4F444946593A54454D505F84
:1000FC00534F414B004D4F444946593A54454D508E
:10010C005F534F414B0054454D503A2020205449E9
:10011C004D453A2020200053544D503A20202020A9
:10012C0052414D50494E470053544D3A20202073B4
:10013C0020534F414B494E470052544D503A2020CA
:10014C00202052414D50494E470052544D3A2020E8
:10015C002073205245464C4F572000202020202051
:10016C0020202020434F4F4C494E47002020202078
:10017C00202020202046494E4953482000C00078BA
:10018C004AD8FED000227A1479FA78B8D8FED9FA77
:10019C00DAF622C000C001790A78B8D8FED9FADAAA
:1001AC00F6D001D00022D296120189C29612018992
:1001BC0022A2E792B1A2E69292A2E59293A2E492D5
:1001CC00941201B2A2E392B1A2E29292A2E19293B2
:1001DC00A2E092941201B222D2A00201BDC2A002EE
:1001EC0001BDC296C297C0027A2812019FD0027438
:1001FC00331201E974331201E974321201E97428E3
:10020C001201E9740C1201E974011201E9C0027ABD
:10021C000212019FD00222E49360061201E4A38033
:10022C00F622444044800201E9C0E0E8C4540F4483
:0F023C00301201E4E8540F44301201E4D0E02204
:10024B00C200C201C202C203120370300003D2010A
:10025B00221203A8300003D20222D20322C0E0C034
:10026B00D0C000C001C002E4F53CF53DF53EF53FC2
:10027B00F5407A20E537A2E779047834E633F608BF
:10028B00D9FA7905783CE636D4F608D9F9DAE5D00F
:10029B0002D001D000D0D0D0E022C0E0C0D0C0004E
:1002AB00C001C002E4F53CF53DF53EF53FF5407A63
:1002BB0020E537A2E779047834E633F608D9FA79E2
:1002CB0005783CC0D0E6243320E70224D020E3029B
:1002DB0024FDD0D033F608D9EADAD6D002D001D03B
:1002EB0000D0D0D0E022C0E0C0D0C000C001C0021E
:1002FB007A207905C37840E613C0D030E70224D0CA
:10030B0030E30224FDF618D0D0D9EC79047837E627
:10031B0013F618D9FADADBD002D001D000D0D0D046
:10032B00E022C0E0C0D0E5342538F534E535353969
:10033B00F535E536353AF536E537353BF537D0D07B
:10034B00D0E022C0E0C0D0C3E5349538F534E535B4
:10035B009539F535E536953AF536E537953BF5376D
:10036B00D0D0D0E022C0E0C0D0C3E5349538E5351D
:10037B009539E536953AE537953B9200D0D0D0E0EC
:10038B0022C0E0C0D0C3E5389534E5399535E53A60
:10039B009536E53B95379200D0D0D0E022C0E0C037
:1003AB00D0C200C3E53895347014E5399535700E1D
:1003BB00E53A95367008E53B95377002D200D0D000
:1003CB00D0E0221203A820000302038C221203A800
:1003DB0020000302037022C0E0C0F0C0D0C000C0F8
:1003EB0001C002C003E5348538F0A4F8A9F0E53567
:1003FB008538F0A429F9E435F0FAE5348539F0A411
:10040B0029F9E5F03AFAE433FBE5368538F0A42A0E
:10041B00FAE5F03BFBE5358539F0A42AFAE5F03B2C
:10042B00FBE534853AF0A42AFAE5F03BFBE537858A
:10043B0038F0A42BFBE5368539F0A42BFBE535858D
:10044B003AF0A42BFBE534853BF0A42BFB8B378ACE
:10045B003689358834D003D002D001D000D0D0D02B
:10046B00F0D0E022C0E0C0D0C000C001C002C00389
:10047B00C0047C20E4F8F9FAFBC3E53433F534E52A
:10048B003533F535E53633F536E53733F537E833C0
:10049B00F8E933F9EA33FAEB33FBC3E89538E9951E
:1004AB0039EA953AEB953B4013E89538F8E99539DD
:1004BB00F9EA953AFAEB953BFB433401DCBBD004EC
:0D04CB00D003D002D001D000D0D0D0E0226C
:1004D80075840075850075910075920075A4007586
:1004E800A50075B10075B200221204D81201EE758C
:1004F8003000E530B4004FC0E0740114120230D06F
:10050800E0C083C082C0E0900068120223D0E0D02F
:1005180082D083C0E074011412022ED0E0C083C0E0
:1005280082C0E0900079120223D0E0D082D08320EC
:10053800B011C0027A4B12019FD00220B00530B032
:10054800FD05300204FAB4014DC0E0740114120232
:1005580030D0E0C083C082C0E090008A120223D06D
:10056800E0D082D083C0E074011412022ED0E0C023
:1005780083C082C0E090009B120223D0E0D082D0DA
:100588008320B012C0027A4B12019FD00220B0061D
:0905980030B0FD7530000204FAD8
:00000001FF
