:03000000020713E1
:0100030032CA
:01000B0032C2
:030013000207A73A
:01001B0032B2
:0100230032AA
:03005B000207C6D3
:10005E0030313233343536373839414243444546F0
:10006E003031323334353637383961626364656620
:10007E000057454C434F4D45212020202020202065
:10008E0020005375706572205265666C6F77212063
:10009E0020200053657474696E673A2050726F6643
:1000AE0020202000537461727420202020202020F4
:1000BE0053746F700053544D503A20202053544DBA
:1000CE003A202020730052544D503A202020525492
:1000DE004D3A20202073004F4C443A202020204ED1
:1000EE0045573A20202020004D4F444946593A5456
:1000FE00454D505F534F414B004D4F444946593A81
:10010E0054494D455F534F414B004D4F444946595D
:10011E003A54454D505F52464C57004D4F44494658
:10012E00593A54454D505F534F414B004D4F444942
:10013E0046593A54454D505F534F414B0054454D2F
:10014E00503A20202054494D453A20202000535447
:10015E004D503A2020202052414D50494E470053D9
:10016E00544D3A2020207320534F414B494E4700A7
:10017E0052544D503A2020202052414D50494E4766
:10018E000052544D3A20202073205245464C4F5772
:10019E002000202020202020202020434F4F4C499B
:1001AE004E470020202020202020202046494E4966
:1001BE00534820007812D8FE22C000784AD8FED0CC
:1001CE0000227A2879FA78B8D8FED9FADAF622C05F
:1001DE0000C001790A78B8D8FED9FADAF6D001D083
:1001EE000022D2871201C7C2871201C722A2E7924C
:1001FE0094A2E69293A2E59292A2E492B11201F039
:10020E00A2E39294A2E29293A2E19292A2E092B120
:10021E001201F022D2850201FBC2850201FBC287C8
:10022E00C286C0027A281201DDD002743312022770
:10023E0074331202277432120227742812022774A2
:10024E000C1202277401120227C0027A021201DD7B
:10025E00D00222E4936006120222A380F6224440CA
:10026E004480020227C0E0E8C4540F443012022238
:10027E00E8540F4430120222D0E022C0E0E8540FBE
:08028E004430120222D0E022EC
:10029600C0E0C0D0C000C001C002E4F562F563F55D
:1002A60064F565F5667A20E55DA2E77904785AE695
:1002B60033F608D9FA79057862E636D4F608D9F91C
:1002C600DAE5D002D001D000D0D0D0E022C0E0C024
:1002D600D0C000C001C002E4F562F563F564F565BF
:1002E600F5667A20E55DA2E77904785AE633F608E2
:1002F600D9FA79057862C0D0E6243320E70224D003
:1003060020E30224FDD0D033F608D9EADAD6D002AB
:10031600D001D000D0D0D0E022C0E0C0D0C000C014
:1003260001C0027A207905C37866E613C0D030E7AB
:100336000224D030E30224FDF618D0D0D9EC79049B
:10034600785DE613F618D9FADADBD002D001D000D0
:10035600D0D0D0E022C0E0C0D0E55A255EF55AE5FF
:100366005B355FF55BE55C3560F55CE55D3561F554
:100376005DD0D0D0E022C0E0C0D0C3E55A955EF58E
:100386005AE55B955FF55BE55C9560F55CE55D952B
:1003960061F55DD0D0D0E022C0E0C0D0C3E55A956B
:1003A6005EE55B955FE55C9560E55D95619202D0E3
:1003B600D0D0E022C0E0C0D0C3E55E955AE55F9597
:1003C6005BE560955CE561955D9202D0D0D0E02258
:1003D600C0E0C0D0C202C3E55E955A7014E55F95D1
:1003E6005B700EE560955C7008E561955D7002D204
:1003F60002D0D0D0E0221203D62002030203BA2292
:100406001203D620020302039E22C0E0C0F0C0D031
:10041600C000C001C002C003E55A855EF0A4F8A979
:10042600F0E55B855EF0A429F9E435F0FAE55A8536
:100436005FF0A429F9E5F03AFAE433FBE55C855E62
:10044600F0A42AFAE5F03BFBE55B855FF0A42AFA07
:10045600E5F03BFBE55A8560F0A42AFAE5F03BFBA4
:10046600E55D855EF0A42BFBE55C855FF0A42BFBC8
:10047600E55B8560F0A42BFBE55A8561F0A42BFBB8
:100486008B5D8A5C895B885AD003D002D001D0008C
:10049600D0D0D0F0D0E022C0E0C0D0C000C001C0B3
:1004A60002C003C0047C20E4F8F9FAFBC3E55A3322
:1004B600F55AE55B33F55BE55C33F55CE55D33F5F5
:1004C6005DE833F8E933F9EA33FAEB33FBC3E89531
:1004D6005EE9955FEA9560EB95614013E8955EF8F5
:1004E600E9955FF9EA9560FAEB9561FB435A01DC01
:1004F600BBD004D003D002D001D000D0D0D0E022AF
:10050600C0E090FFDEE04408F0D0E022758400757C
:10051600850075910075920075A40075A50075B1EA
:100526000075B200224384015385FE4391805392A5
:100536007F43A40353A5FCD2C275A12075A30F75F2
:080546008E05E58E30E3FB2277
:10054E0075BD0075BF0075BE3075BD0375985253ED
:10055E0091FC5392FC2210990280FBF59922E493B0
:10056E006006120564A380F622C0E0E8C4540F446E
:10057E0030120564E8540F4430120564D0E0229026
:10058E00005EE565C4540F93120564E565540F9340
:10059E00120564E564C4540F93120564E564540FA8
:1005AE0093120564E563C4540F93120564E5635416
:1005BE000F93120564E562C4540F93120564E5624D
:1005CE00540F9312056422740D120564740A1205F9
:0205DE00642295
:1005E000755A00755B00755C00755D0085C75A7FA4
:1005F000FF1201C285C75E755F00756000756100FE
:1006000012035B1201C2DFEC755E10755F0075604E
:100610000075610012049D755EE8755F807560006D
:10062000756100120410755E00755F1075600075CD
:10063000610012049D755E3C755F00756000756118
:100640000012037C755E0E755F1D7560007561009C
:10065000120410755E10755F2775600075610012D9
:10066000049D854D61854C60854B5F854A5E120314
:100670005B12029612058D755E64755F00756000F1
:1006800075610012049D855D51855C50855B4F85C9
:100690005A4E22755A00755B00755C00755D0085C9
:1006A000C75A7FFF1201C285F45E755F0075600056
:1006B00075610012035B1201C2DFEC755E10755F9D
:1006C0000075600075610012049D755EE8755F80BD
:1006D000756000756100120410755E00755F10751D
:1006E000600075610012049D755E3C755F00756069
:1006F0000075610012037C755EA4755F6A75600009
:1007000075610012037C855D4D855C4C855B4B8576
:030710005A4A2220
:1007130075817F12077D12051212022C1205061233
:10072300052B753100753664753EDC753A1E7542CE
:100733000A75463CC0E074011412026ED0E0C08317
:10074300C082C0E090007F120261D0E0D082D083EB
:10075300C0E074011412026CD0E0C083C082C0E018
:10076300900090120261D0E0D082D083C0027A144C
:100773001201DDD002D2AF0080FDE589540F441091
:10078300F589758D6F758BFFD2ABD28E2275CD6FC8
:1007930075CCFF75CF6F75CEFF75F98075C980D2A3
:1007A300ECC2C822758D6F758BFFB2A6C0E0C0D0B6
:1007B3000530E530B43207D206B28C753000D0D0A4
:1007C300D0E03275E90032C0E074061412026ED034
:1007D300E085515D85505C854F5B854E5A120296CC
:1007E300C000A863120289D000C000A8621202737D
:1007F300D000C0E0740E1412026ED0E085345D8523
:10080300335C85325B85315A120296C000A86312AD
:100813000289D000C000A862120273D0002212061F
:10082300931205E085515D85505C854F5B854E5A7B
:1008330085396185386085375F85365E12039E2270
:10084300E533B40076D2A7120821C0E07401141274
:10085300026ED0E0C083C082C0E090014B120261FF
:10086300D0E0D082D083C0E074011412026CD0E0D7
:10087300C083C082C0E090015C120261D0E0D082EC
:10088300D0831207CAC0E074061412026CD0E0854C
:10089300395D85385C85375B85365A120296C00010
:1008A300A863120289D000C000A862120273D000AC
:1008B30020020505347532000209CFB40152053216
:1008C300755D00755C00755B0085325A853D6185F9
:1008D3003C60853B5F853A5E12039E20020505342A
:1008E3000209101206931205E085515D85505C855F
:1008F3004F5B854E5A85396185386085375F85360C
:100903005E12039E200304C2A78002D2A70209CF6E
:10091300B4022ED2A71206931205E085515D8550CD
:100923005C854F5B854E5A854161854060853F5F9D
:10093300853E5E12039E20020505347532000209CE
:10094300CFB403520532755D00755C00755B00859D
:10095300325A85456185446085435F85425E120353
:100963009E20020505340209961206931205E085BE
:10097300515D85505C854F5B854E5A85416185404D
:1009830060853F5F853E5E12039E200304C2A780FD
:1009930002D2A70209CFB4042EC2A71206931205EE
:1009A300E085515D85505C854F5B854E5A85496175
:1009B30085486085475F85465E12039E30020505C4
:0D09C300347532000209CFB40502C2A7222C
:00000001FF
