:03000000020B826E
:0100030032CA
:01000B0032C2
:0100130032BA
:03001B00020C7064
:0100230032AA
:03005B0002075B3E
:10005E0030313233343536373839414243444546F0
:10006E003031323334353637383961626364656620
:10007E000057454C434F4D45212020202020202065
:10008E0020005375706572205265666C6F77212063
:10009E0020200053657474696E673A2050726F6643
:1000AE0020202000537461727420202020202020F4
:1000BE0053746F700053544D503A20202053544DBA
:1000CE003A202020730052544D503A202020525492
:1000DE004D3A20202073004F4C443A202020204ED1
:1000EE0045573A20202020004D4F444946593A5456
:1000FE00454D505F534F414B004D4F444946593A81
:10010E0054494D455F534F414B004D4F444946595D
:10011E003A54454D505F52464C57004D4F44494658
:10012E00593A54454D505F534F414B004D4F444942
:10013E0046593A54454D505F534F414B0054454D2F
:10014E00503A20202054494D453A20202000535447
:10015E004D503A2020202052414D50494E470053D9
:10016E00544D3A2020207320534F414B494E4700A7
:10017E0052544D503A2020202052414D50494E4766
:10018E000052544D3A20202073205245464C4F5772
:10019E0020005346543A2020202020434F4F4C49F4
:1001AE004E470020202020202020202046494E4966
:1001BE00534820004572726F72205761726E696EDD
:1001CE00672120200054454D502053656E73696E93
:1001DE006720455252007812D8FE22C000784AD8C5
:1001EE00FED000227A2879FA78B8D8FED9FADAF653
:1001FE0022C000C001790A78B8D8FED9FADAF6D052
:10020E0001D00022D2871201E9C2871201E922A28F
:10021E00E79294A2E69293A2E59292A2E492B11290
:10022E000212A2E39294A2E29293A2E19292A2E02F
:10023E0092B112021222D28502021DC28502021D45
:10024E00C287C286C0027A281201FFD0027433120E
:10025E00024974331202497432120249742812028E
:10026E0049740C1202497401120249C0027A021238
:10027E0001FFD00222E4936006120244A380F6220C
:10028E0044404480020249C0E0E8C4540F44301296
:10029E000244E8540F4430120244D0E022C0E0E899
:0A02AE00540F4430120244D0E02245
:1002B800C0E0C0D0C000C001C002E4F562F563F53B
:1002C80064F565F5667A20E55DA2E77904785AE673
:1002D80033F608D9FA79057862E636D4F608D9F9FA
:1002E800DAE5D002D001D000D0D0D0E022C0E0C002
:1002F800D0C000C001C002E4F562F563F564F5659D
:10030800F5667A20E55DA2E77904785AE633F608BF
:10031800D9FA79057862C0D0E6243320E70224D0E0
:1003280020E30224FDD0D033F608D9EADAD6D00289
:10033800D001D000D0D0D0E022C0E0C0D0C000C0F2
:1003480001C0027A207905C37866E613C0D030E789
:100358000224D030E30224FDF618D0D0D9EC790479
:10036800785DE613F618D9FADADBD002D001D000AE
:10037800D0D0D0E022C0E0C0D0E55A255EF55AE5DD
:100388005B355FF55BE55C3560F55CE55D3561F532
:100398005DD0D0D0E022C0E0C0D0C3E55A955EF56C
:1003A8005AE55B955FF55BE55C9560F55CE55D9509
:1003B80061F55DD0D0D0E022C0E0C0D0C3E55A9549
:1003C8005EE55B955FE55C9560E55D95619202D0C1
:1003D800D0D0E022C0E0C0D0C3E55E955AE55F9575
:1003E8005BE560955CE561955D9202D0D0D0E02236
:1003F800C0E0C0D0C202C3E55E955A7014E55F95AF
:100408005B700EE560955C7008E561955D7002D2E1
:1004180002D0D0D0E0221203F82002030203DC222B
:100428001203F82002030203C022C0E0C0F0C0D0CB
:10043800C000C001C002C003E55A855EF0A4F8A957
:10044800F0E55B855EF0A429F9E435F0FAE55A8514
:100458005FF0A429F9E5F03AFAE433FBE55C855E40
:10046800F0A42AFAE5F03BFBE55B855FF0A42AFAE5
:10047800E5F03BFBE55A8560F0A42AFAE5F03BFB82
:10048800E55D855EF0A42BFBE55C855FF0A42BFBA6
:10049800E55B8560F0A42BFBE55A8561F0A42BFB96
:1004A8008B5D8A5C895B885AD003D002D001D0006A
:1004B800D0D0D0F0D0E022C0E0C0D0C000C001C091
:1004C80002C003C0047C20E4F8F9FAFBC3E55A3300
:1004D800F55AE55B33F55BE55C33F55CE55D33F5D3
:1004E8005DE833F8E933F9EA33FAEB33FBC3E8950F
:1004F8005EE9955FEA9560EB95614013E8955EF8D3
:10050800E9955FF9EA9560FAEB9561FB435A01DCDE
:10051800BBD004D003D002D001D000D0D0D0E0228C
:10052800C0E090FFDEE04408F0D0E022758400755A
:10053800850075910075920075A40075A50075B1C8
:100548000075B200224384015385FE439180539283
:100558007F43A40353A5FCD2C275A12075A30F75D0
:080568008E05E58E30E3FB2255
:1005700075BD0075BF0075BE3075BD0375985253CB
:1005800091FC5392FC2210990280FBF59922E4938E
:100590006006120586A380F622C0E0E8C4540F442A
:1005A00030120586E8540F4430120586D0E02274DC
:1005B0000D120586740A1205862290005EE565C458
:1005C000540F93120586E565540F93120586E56472
:1005D000C4540F93120586E564540F93120586E503
:1005E00063C4540F93120586E563540F9312058676
:1005F000E562C4540F93120586E562540F93120509
:02060000862250
:10060200755A00755B00755C00755D0085C75A7F81
:10061200FF1201E485C75E755F00756000756100B9
:1006220012037D1201E4DFEC755E10755F007560E8
:10063200007561001204BF755EE8755F8075600029
:10064200756100120432755E00755F107560007589
:1006520061001204BF755E3C755F007560007561D4
:100662000012039E755E0E755F1D75600075610058
:10067200120432755E10755F277560007561001295
:1006820004BF854D61854C60854B5F854A5E1203D0
:100692007D755E64755F007560007561001204BF50
:1006A200755EFA755F007560007561001203C02007
:1006B2000203020602855D51855C50855B4F855AB7
:1006C2004E22755A00755B00755C00755D0085C72A
:1006D2005A7FFF1201E485F45E755F007560007554
:1006E200610012037D1201E4DFEC755E10755F009C
:1006F2007560007561001204BF755EE8755F8075F4
:100702006000756100120432755E00755F107560DD
:10071200007561001204BF755E3C755F0075600074
:1007220075610012039E755EA4755F6A756000753F
:10073200610012039E855D4D855C4C855B4B855A3D
:020742004A2249
:1007440075CDFF75CC5975CFFF75CE5975F9807588
:10075400C980D2ECD2C82275E900D2A6C0E0C0D0CC
:10076400E5684569456A601574FF1568B56807153D
:1007740069B56902156A1207D3F5F58004C2C8D2B7
:10078400A4D0D0D0E0C2A63243841043851075A112
:100794002875970475F5802253A4CB43A53443A44C
:1007A4000853A5F775E2D0227A3279C878E6D8FEE4
:1007B400D9FADAF6227A3279C87896D8FED9FADAF2
:1007C400F6227A3279C8785AD8FED9FADAF622F5BE
:1007D400E3E5E130E7FBF5E1E5E322C2C8D2A47525
:1007E4005A00755B00755C00755D00856B5A1202DA
:1007F400B8756400756200E563540F756300F562B3
:10080400120341855A6DE56DB40003D20622755A70
:1008140000755B00755C00755D00856D5A755E0042
:10082400755F00756000756100755E88755F901274
:100834000432755E38755F97756008756100120340
:100844007DC2A474031207D3E55C1207D3E55B12DF
:1008540007D3E55A1207D3756A00756990756888DD
:1008640074001207D3D2C822C2C8D2A4755A007524
:100874005B00755C00755D00856B5A1202B8756487
:1008840000756300E562C4540FF562120341855A92
:100894006DE56DB40003D20722B401030208FD75AF
:1008A4005A00755B00755C00755D00856D5A755E58
:1008B40000755F00756000756100755E24755F5E8C
:1008C400120432755E40755F7E75600575610012B5
:1008D400037DC2A474031207D3E55C1207D3E55B5E
:1008E4001207D3E55A1207D3756A00756950756803
:1008F400C374001207D3D2C822C2C8D2A4755A0046
:10090400755B00755C00755D00856B5A1202B875E5
:100914006400756300E562540FF562120341855A61
:100924006CE56C755A00755B00755C00755D00853F
:100934006C5A755E00755F00756000756100755EC8
:10094400FC755F53120432755EB0755FA775600263
:1009540075610012037D755E00755F00756000753A
:100964006100856E5E12037D756E00C2A47403126D
:1009740007D3E55C1207D3E55B1207D3E55A1207E8
:10098400D3756A007569537568FC74001207D3D275
:10099400C8D20522300503C20522C2C8D2A4755AA2
:1009A40000755B00755C00755D00856B5A1202B8BA
:1009B400756400756300E562540FF56212034185A6
:1009C4005A6CE56CB4000122755A00755B00755CC5
:1009D40000755D00856C5A755E00755F007560007A
:1009E400756100755E30755F43120432755EFF7584
:1009F4005F0075600075610012037DC2A474031268
:100A040007D3E55C1207D3E55B1207D3E55A120757
:100A1400D3756A0075693E7568A474001207D3D251
:100A2400C8221207DF2006031207ACC20612086CA4
:100A34002007031207C6C2071209981207C62275B7
:100A44005AD0755B48755C0A755D00755EB8755F54
:100A540088756000756100120B571207AC22755A35
:100A640070755BD5755C0A755D00755E0A755F2BE4
:100A7400756000756100120B5722755A4C755B2C1A
:100A8400755C0B755D00755E68755F427560007519
:100A94006100120B571207AC22755A08755B8D75ED
:100AA4005C0B755D00755E78755F697560007561D6
:100AB40000120B571207AC22755AF0755B0D755C6A
:100AC4000C755D00755EA8755F61756000756100E9
:100AD400120B571207AC22755AF0755B8A755C0CC1
:100AE400755D00755E78755F6975600075610012EB
:100AF4000B571207AC22755AA8755B13755C0D75FC
:100B04005D00755EA8755F61756000756100120B0C
:100B1400571207AC22755A08755B81755C0D755DBB
:100B240000755E98755F3A756000756100120B5729
:100B34001207B922755A10755BD3755C0D755D008B
:100B4400755EB0755F36756000756100120B5712E3
:100B540007C622C2C8D2A4C2A474031207D3E55C98
:100B64001207D3E55B1207D3E55A1207D3756A005F
:0E0B7400855F69855E6874001207D3D2C822BF
:100B820075817F12053412024E12057012054D75E1
:100B92003100753900753800753700753696754124
:100BA20000754000753F00753ED7753D00753C00ED
:100BB200753B00753A1E7545007544007543007516
:100BC200420A75490075480075470075463C753301
:100BD20000753400756B00756E00756700C296C2B1
:100BE20003C205C206C207C0E0740114120290D00B
:100BF200E0C083C082C0E090007F120283D0E0D0C8
:100C020082D083C0E074011412028ED0E0C083C08F
:100C120082C0E0900090120283D0E0D082D0831292
:100C2200078C12074412079CC2C8D2AFC2A7208108
:100C3200FDC0027A4B1201FFD0022081F13081FD0A
:100C4200120C5D3004FDC2040567E567B40A057540
:100C52006700D208B282120CE980E8E589540F4499
:100C620010F589758D6F758BFFD2ABD28E22758D83
:100C72006F758BFFB2A6C0E0C0D00530E530B4324C
:100C82000AD2043003020531753000D0D0D0E032F0
:100C9200C0E0740614120290D0E085515D85505C6C
:100CA200854F5B854E5A1202B8C000A8631202AB90
:100CB200D000C000A862120295D000C0E0740E14E9
:100CC200120290D0E0755D00755C00755B008531A5
:100CD2005A1202B8C000A8631202ABD000C000A82A
:100CE20062120295D00022E534B400028003020DA4
:100CF200B1D203D2A71206C412060285515D8550F5
:100D02005C854F5B854E5A85396185386085375FD2
:100D120085365E1203C0C0E0740114120290D0E066
:100D2200C083C082C0E090014B120283D0E0D08227
:100D3200D083C0E074011412028ED0E0C083C0825E
:100D4200C0E090015C120283D0E0D082D083120C0A
:100D520092C0E074061412028ED0E085395D8538A7
:100D62005C85375B85365A1202B8C000A86312024E
:100D7200ABD000C000A862120295D0002002070585
:100D820034853A328026E531B41E2185515D855085
:100D92005C854F5B854E5A756100756000755F001A
:100DA200755E3C1203C03002030210820210C0B40E
:100DB20001028003020E57D532050534020E541289
:100DC20006C412060285515D85505C854F5B854ED7
:100DD2005A85396185386085375F85365E1203C072
:100DE200C0E0740114120290D0E0C083C082C0E05F
:100DF20090014B120283D0E0D082D083C0E0740114
:100E02001412028ED0E0C083C082C0E090016D1245
:100E12000283D0E0D082D083120C92C0E074051419
:100E220012028ED0E0755A00755B00755C00755D2C
:100E32000085325A1202B8C000A8631202ABD00079
:100E4200C000A862120295D000200204C2A780024C
:100E5200D2A70210C0B402028003020EF6D2A71279
:100E620006C412060285515D85505C854F5B854E36
:100E72005A854161854060853F5F853E5E1203C0B1
:100E820020020805348542320210C0C0E074011409
:100E9200120290D0E0C083C082C0E090014B1202E7
:100EA20083D0E0D082D083C0E074011412028ED0CD
:100EB200E0C083C082C0E090017E120283D0E0D005
:100EC20082D083120C92C0E074061412028ED0E01B
:100ED20085415D85405C853F5B853E5A1202B8C004
:100EE20000A8631202ABD000C000A862120295D023
:100EF200000210C0B403028003020F9CD532050524
:100F020034020F99C0E0740114120290D0E0C08341
:100F1200C082C0E090014B120283D0E0D082D08325
:100F2200C0E074011412028ED0E0C083C082C0E01F
:100F320090018F120283D0E0D082D083120C9212E1
:100F420006C412060285515D85505C854F5B854E55
:100F52005A854161854060853F5F853E5E1203C0D0
:100F6200C0E074051412028ED0E0755A00755B0061
:100F7200755C00755D0085325A1202B8C000A86324
:100F82001202ABD000C000A862120295D00020026B
:100F920004C2A78002D2A70210C0B40402800302D6
:100FA200103EC2A71206C412060285515D85505C2E
:100FB200854F5B854E5A85496185486085475F85C7
:100FC200465E1203C03002050534753200C0E0747B
:100FD2000114120290D0E0C083C082C0E090014BA5
:100FE200120283D0E0D082D083C0E07401141202D6
:100FF2008ED0E0C083C082C0E09001A0120283D0F4
:10100200E0D082D083120C92C0E074051412028EDA
:10101200D0E0755A00755B00755C00755D00854611
:101022005A1202B81202B8C000A8631202ABD00072
:10103200C000A862120295D0000210C0B4057FC29F
:10104200A7C203C0E0740114120290D0E0C083C0B2
:1010520082C0E090014B120283D0E0D082D083C0E4
:10106200E074011412028ED0E0C083C082C0E0900E
:1010720001B1120283D0E0D082D083120C92803E62
:10108200C2A7C0E0740114120290D0E0C083C082F3
:10109200C0E09001C2120283D0E0D082D083C0E0CF
:1010A20074011412028ED0E0C083C082C0E09001AD
:1010B200D3120283D0E0D082D083D29680FE100871
:1010C2000122120A43854E6B120A26120A62120A82
:0210D2007E227C
:00000001FF
