:03000000020C628D
:03000300020E29C1
:01000B0032C2
:03001300020E37A3
:03001B00020E02D0
:0100230032AA
:03005B0002077D1C
:10005E0030313233343536373839414243444546F0
:10006E003031323334353637383961626364656620
:10007E000057454C434F4D45212020202020202065
:10008E0020005375706572205265666C6F77212063
:10009E0020200053657474696E673A2050726F6643
:1000AE0020202000537461727420202020202020F4
:1000BE0053746F700053544D503A20202053544DBA
:1000CE003A202020730052544D503A202020525492
:1000DE004D3A20202073004F4C443A202020204ED1
:1000EE0045573A20202020004D4F444946593A5456
:1000FE00454D505F534F414B004D4F444946593A81
:10010E0054494D455F534F414B004D4F444946595D
:10011E003A54454D505F52464C57004D4F44494658
:10012E00593A54494D455F52464C57004D4F44493C
:10013E0046593A534146450054454D503A202020E9
:10014E0054494D453A2020200053544D503A20201A
:10015E00202052414D50494E470053544D3A2020D5
:10016E00207320534F414B494E470052544D503A45
:10017E002020202052414D50494E470052544D3AB6
:10018E0020202073205245464C4F57200053465492
:10019E003A2020202020434F4F4C494E470020202C
:1001AE002020202020202046494E4953482000453B
:1001BE0072726F72205761726E696E672120200015
:1001CE0054454D502053656E73696E6720455252EB
:1001DE00007812D8FE22C000784AD8FED000227ACB
:1001EE002879FA78B8D8FED9FADAF622C000C0011A
:1001FE00790A78B8D8FED9FADAF6D001D00022D230
:10020E00831201E4C2831201E422A2E792B0A2E6B5
:10021E009287A2E59286A2E4928512020DA2E39243
:10022E00B0A2E29287A2E19286A2E0928512020D1E
:10023E0022D281020218C281020218C283C282C077
:10024E00027A281201FAD002743312024474331265
:10025E00024474321202447428120244740C1202C4
:10026E00447401120244C0027A021201FAD0022230
:10027E00E493600612023FA380F6224440448002BB
:10028E000244C0E0E8C4540F443012023FE8540F59
:10029E00443012023FD0E022C0E0E8540F44301246
:0502AE00023FD0E02238
:1002B300C0E0C0D0C000C001C002E4F562F563F540
:1002C30064F565F5667A20E55DA2E77904785AE678
:1002D30033F608D9FA79057862E636D4F608D9F9FF
:1002E300DAE5D002D001D000D0D0D0E022C0E0C007
:1002F300D0C000C001C002E4F562F563F564F565A2
:10030300F5667A20E55DA2E77904785AE633F608C4
:10031300D9FA79057862C0D0E6243320E70224D0E5
:1003230020E30224FDD0D033F608D9EADAD6D0028E
:10033300D001D000D0D0D0E022C0E0C0D0C000C0F7
:1003430001C0027A207905C37866E613C0D030E78E
:100353000224D030E30224FDF618D0D0D9EC79047E
:10036300785DE613F618D9FADADBD002D001D000B3
:10037300D0D0D0E022C0E0C0D0E55A255EF55AE5E2
:100383005B355FF55BE55C3560F55CE55D3561F537
:100393005DD0D0D0E022C0E0C0D0C3E55A955EF571
:1003A3005AE55B955FF55BE55C9560F55CE55D950E
:1003B30061F55DD0D0D0E022C0E0C0D0C3E55A954E
:1003C3005EE55B955FE55C9560E55D95619202D0C6
:1003D300D0D0E022C0E0C0D0C3E55E955AE55F957A
:1003E3005BE560955CE561955D9202D0D0D0E0223B
:1003F300C0E0C0D0C202C3E55E955A7014E55F95B4
:100403005B700EE560955C7008E561955D7002D2E6
:1004130002D0D0D0E0221203F32002030203D7223A
:100423001203F32002030203BB22C0E0C0F0C0D0DA
:10043300C000C001C002C003E55A855EF0A4F8A95C
:10044300F0E55B855EF0A429F9E435F0FAE55A8519
:100453005FF0A429F9E5F03AFAE433FBE55C855E45
:10046300F0A42AFAE5F03BFBE55B855FF0A42AFAEA
:10047300E5F03BFBE55A8560F0A42AFAE5F03BFB87
:10048300E55D855EF0A42BFBE55C855FF0A42BFBAB
:10049300E55B8560F0A42BFBE55A8561F0A42BFB9B
:1004A3008B5D8A5C895B885AD003D002D001D0006F
:1004B300D0D0D0F0D0E022C0E0C0D0C000C001C096
:1004C30002C003C0047C20E4F8F9FAFBC3E55A3305
:1004D300F55AE55B33F55BE55C33F55CE55D33F5D8
:1004E3005DE833F8E933F9EA33FAEB33FBC3E89514
:1004F3005EE9955FEA9560EB95614013E8955EF8D8
:10050300E9955FF9EA9560FAEB9561FB435A01DCE3
:10051300BBD004D003D002D001D000D0D0D0E02291
:10052300C0E090FFDEE04408F0D0E022758400755F
:10053300850075910075920075A40075A50075B1CD
:100543000075B200224384015385FE439180539288
:100553007F43A40353A5FCD2C275A12075A30F75D5
:080563008E05E58E30E3FB225A
:10056B0075BD0075BF0075BE3075BD0375985253D0
:10057B0091FC5392FC2210990280FBF59922E49393
:10058B006006120581A380F622C0E0E8C4540F4434
:10059B0030120581E8540F4430120581D0E02274EB
:1005AB000D120581740A1205812290005EE565C467
:1005BB00540F93120581E565540F93120581E56481
:1005CB00C4540F93120581E564540F93120581E512
:1005DB0063C4540F93120581E563540F9312058185
:1005EB00E562C4540F93120581E562540F93120513
:0205FB0081225B
:1005FD00755A00755B00755C00755D0085C75A7F87
:10060D00FF1201DF85C75E755F00756000756100C3
:10061D001203781201DFDFEC755E10755F007560F7
:10062D00007561001204BA755EE8755F8075600033
:10063D0075610012042D755E00755F107560007593
:10064D0061001204BA755E3C755F007560007561DE
:10065D0000120399755E0E755F1D75600075610062
:10066D0012042D755E10755F27756000756100129F
:10067D0004BA755EB4755F00756000756100120394
:10068D0099854D61854C60854B5F854A5E12037877
:10069D001202B31205B51205AA755E64755F007579
:1006AD0060007561001204BA755E5E755F0175605C
:1006BD00007561001203BB2002030205FD855D512B
:1006CD00855C50855B4F855A4E22755A00755B00CF
:1006DD00755C00755D0085C75A7FFF1201DF85F4DB
:1006ED005E755F007560007561001203781201DFA1
:1006FD00DFEC755E10755F007560007561001204AA
:10070D00BA755EE8755F8075600075610012042D25
:10071D00755E00755F107560007561001204BA7525
:10072D005E3C755F00756000756100120399755E22
:10073D00A4755F6A756000756100120399755EF4AA
:10074D00755F01756000756100120399855D4D85BA
:09075D005C4C855B4B855A4A2275
:1007660075CDFF75CC5975CFFF75CE5975F9807566
:10077600C980D2ECD2C82275E900D2A6C0E0C0D0AA
:10078600E5684569456A601574FF1568B56807151B
:1007960069B56902156A1207F5F5F58004C2C8D273
:1007A600A4D0D0D0E0C2A63243841043851075A1F0
:1007B6002875970475F5802253A4CB43A53443A42A
:1007C6000853A5F775E2D0227A3279C878E6D8FEC2
:1007D600D9FADAF6227A3279C87896D8FED9FADAD0
:1007E600F6227A3279C8785AD8FED9FADAF622F59C
:1007F600E3E5E130E7FBF5E1E5E322C2C8D2A47503
:100806005A00755B00755C00755D00856B5A1202B7
:10081600B3756400756200E563540F756300F56295
:1008260012033C855A6DE56DB40003D20622755A53
:1008360000755B00755C00755D00856D5A755E0020
:10084600755F00756000756100755EA0755F8C123E
:10085600042D755E38755F97756008756100120323
:1008660078C2A474031207F5E55C1207F5E55B127E
:1008760007F5E55A1207F5756A0075698C7568A063
:1008860074001207F5D2C822C2C8D2A4755A0075E0
:100896005B00755C00755D00856B5A1202B375646A
:1008A60000756300E562C4540FF56212033C855A75
:1008B6006DE56DB40003D20722B4010302091F756A
:1008C6005A00755B00755C00755D00856D5A755E36
:1008D60000755F00756000756100755E24755F5E6A
:1008E60012042D755E40755F7E7560057561001298
:1008F6000378C2A474031207F5E55C1207F5E55BFD
:100906001207F5E55A1207F5756A0075695075689C
:10091600C374001207F5D2C822C2C8D2A4755A0001
:10092600755B00755C00755D00856B5A1202B375C8
:100936006400756300E562540FF56212033C855A44
:100946006CE56C755A00755B00755C00755D00851D
:100956006C5A755E00755F00756000756100755EA6
:10096600FC755F5312042D755EB0755FA775600246
:10097600756100120378755E00755F00756000751D
:100986006100856E5E120378756E00C2A474031250
:1009960007F5E55C1207F5E55B1207F5E55A120760
:1009A600F5756A007569537568FC74001207F5D20F
:1009B600C8D20522300503C20522C2C8D2A4755A80
:1009C60000755B00755C00755D00856B5A1202B39D
:1009D600756400756300E562540FF56212033C8589
:1009E6005A6CE56CB4000420070122755A00755B49
:1009F60000755C00755D00856C5A755E00755F005C
:100A0600756000756100755E30755F4312042D7563
:100A16005EFF755F00756000756100120378C2A401
:100A260074031207F5E55C1207F5E55B1207F5E5B9
:100A36005A1207F5756A0075693E7568A474001246
:100A460007F5D2C8221208012006031207CEC206F5
:100A560012088E2007031207E81209BAC207120706
:100A6600E822755AD0755B48755C0A755D00755E3F
:100A7600B8755F88756000756100120B7F1207CE2E
:100A860022755A70755BD5755C0A755D00755E0AD0
:100A9600755F2B756000756100120B7F1207E822E7
:100AA600755A4C755B2C755C0B755D00755E6875CB
:100AB6005F42756000756100120B7F1207CE2275CA
:100AC6005A08755B8D755C0B755D00755E78755F94
:100AD60069756000756100120B7F1207CE22755A88
:100AE600F0755B0D755C0C755D00755EA8755F61D4
:100AF600756000756100120B7F1207CE22755AF0E1
:100B0600755B8A755C0C755D00755E78755F6975D9
:100B16006000756100120B7F1207CE22755AA87508
:100B26005B13755C0D755D00755EA8755F6175601C
:100B360000756100120B7F1207CE22755A08755B8D
:100B460081755C0D755D00755E98755F3A75600020
:100B5600756100120B7F1207DB22755A10755BD385
:100B6600755C0D755D00755EB0755F3675600075F8
:100B76006100120B7F1207E822C2C8D2A4C2A47475
:100B8600031207F5E55C1207F5E55B1207F5E55A72
:100B96001207F5756A00855F69855E68740012073D
:090BA600F5D2C822C2C8D2A42273
:100BAF00C0E0120BC3120C14C0027A961201FAD0D5
:100BBF0002D0E022757000C3E5C594A340047570A0
:100BCF000722C3E5C59491400475700622C3E5C59D
:100BDF009478400475700522C3E5C594624004758E
:100BEF00700422C3E5C59444400475700322C3E525
:100BFF00C59433400475700222C3E5C594134004B5
:100C0F007570012222C3E5C694C4400475700E228C
:100C1F00C3E5C694AF400475700D22C3E5C694902A
:100C2F00400475700C22C3E5C69471400475700BB7
:100C3F0022C3E5C69452400475700A22C3E5C694D8
:100C4F0033400475700922C3E5C6941440047570CF
:030C5F0008222246
:100C620075817F12052F12024912056B120548C0C9
:100C7200E074011412028BD0E0C083C082C0E09005
:100C8200007F12027ED0E0D082D083C0E0740114D3
:100C9200120289D0E0C083C082C0E09000901202AC
:100CA2007ED0E0D082D083120D901207AE1207667A
:100CB2001207BE120D33120D3675390075380075E4
:100CC2003700753696754100754000753F00753ED8
:100CD200D9753D00753C00753B00753A3C75450081
:100CE20075440075430075424B754900754800759F
:100CF200470075463CC2C8D2AFC2A7755203120163
:100D0200ED200103020E423004F7C2040567E567D5
:100D1200B40509756700300803120DF280E3E58916
:100D2200540F4410F589758D6F758BFFD2ABD28E3F
:100D320022D2A822D2AA22C0E074061412028BD0B8
:100D4200E085515D85505C854F5B854E5A1202B33A
:100D5200C000A8631202A6D000C000A862120290CE
:100D6200D000C0E0740E1412028BD0E0755D0075E5
:100D72005C00755B0085315A1202B3C000A8631291
:100D820002A6D000C000A862120290D000227531E3
:100D920000753300753400755400755500756B008D
:100DA200756E00756700756F00C296C208C203C2F5
:100DB20005C206C207C201C0E074011412028BD040
:100DC200E0C083C082C0E090007F12027ED0E0D0FB
:100DD20082D083C0E0740114120289D0E0C083C0C3
:100DE20082C0E090009012027ED0E0D082D08322B6
:100DF200120A68854E6B120A4B120A87120AA62241
:100E0200758D6F758BFFB2A6C0E0C0D00530E5309E
:100E1200B4640FD2043003020531753000B2961269
:100E220013EED0D0D0E032C288D201120AC5120A23
:100E3200E4120D2032C28AC28E120BAA120D903217
:100E4200E5338003020F98B400FAC0E07401141273
:100E5200028BD0E0C083C082C0E09000C312027E49
:100E6200D0E0D082D083C0E0740114120289D0E0B5
:100E7200C083C082C0E09000D412027ED0E0D08253
:100E8200D083C0E0740D14120289D0E0755A007547
:100E92005B00755C00755D0085425A1202B3C000AA
:100EA200A8631202A6D000C000A862120290D0006D
:100EB200C0E0740D1412028BD0E0755A00755B000D
:100EC200755C00755D00853A5A1202B3C000A863D2
:100ED2001202A6D000C000A862120290D000C0E0A8
:100EE200740614120289D0E0755A00755B00755CB5
:100EF20000755D00853E5A1202B3C000A86312025B
:100F0200A6D000C000A862120290D000C0E0740611
:100F12001412028BD0E0755A00755B00755C007587
:100F22005D0085365A1202B3C000A8631202A6D031
:100F320000C000A862120290D000120BAF755A00D6
:100F4200755B00755C00755D0085705A755E0D7588
:100F52005F007560007561001203F330020805330B
:100F62001213E7021215755A00755B00755C007565
:100F72005D0085705A755E0E755F00756000756163
:100F8200001203F33002097533041213E70212153B
:100F9200021215021038B401FAC0E07401141202F0
:100FA2008BD0E0C083C082C0E09000F612027ED0F7
:100FB200E0D082D083C0E0740114120289D0E0C074
:100FC20083C082C0E09000E512027ED0E0D082D0E1
:100FD20083C0E0740514120289D0E085365A1202E9
:100FE200B3C000A8631202A6D000C000A862120219
:100FF20090D000C0E0740D14120289D0E0C000A8A5
:10100200551202A6D000C000A854120290D00012BD
:10101200121830021812124112121830020F121254
:101022004112121830020612124102103202131338
:10103200020D030210D8B402FAC0E07401141202C5
:101042008BD0E0C083C082C0E090010712027ED044
:10105200E0D082D083C0E0740114120289D0E0C0D3
:1010620083C082C0E09000E512027ED0E0D082D040
:1010720083C0E0740514120289D0E0853A5A120244
:10108200B3C000A8631202A6D000C000A862120278
:1010920090D000C0E0740D14120289D0E0C000A804
:1010A200551202A6D000C000A854120290D000121D
:1010B200121830021812124112121830020F1212B4
:1010C200411212183002061212410210D2021313F8
:1010D200020D03021178B403FAC0E0740114120283
:1010E2008BD0E0C083C082C0E090011812027ED093
:1010F200E0D082D083C0E0740114120289D0E0C033
:1011020083C082C0E09000E512027ED0E0D082D09F
:1011120083C0E0740514120289D0E0853E5A12029F
:10112200B3C000A8631202A6D000C000A8621202D7
:1011320090D000C0E0740D14120289D0E0C000A863
:10114200551202A6D000C000A854120290D000127C
:10115200121830021812124112121830020F121213
:1011620041121218300206121241021172021313B6
:10117200020D03021215B404FAC0E0740114120243
:101182008BD0E0C083C082C0E090012912027ED0E1
:10119200E0D082D083C0E0740114120289D0E0C092
:1011A20083C082C0E09000E512027ED0E0D082D0FF
:1011B20083C0E0740514120289D0E085425A1202FB
:1011C200B3C000A8631202A6D000C000A862120237
:1011D20090D000C0E0740D14120289D0E0C000A8C3
:1011E200551202A6D000C000A854120290D00012DC
:1011F200121830021812124112121830020F121273
:101202004112121830020612124102121202131374
:10121200020D03020D03120BAF755A00755B0075C8
:101222005C00755D0085705A755E0B755F007560B8
:10123200007561001203BBE570B4000280D822E59C
:1012420052B4033DC0027AFA1201FAD002E570B438
:101252000A027400540FF555755202C0E0740D1461
:10126200120289D0E0C000A8551202A6D000C00028
:10127200A854120290D000C0027AFA1201FAD002E7
:1012820022E552B40246C0027AFA1201FAD002E50D
:1012920054540FF554E570B40A027400540FC44557
:1012A20054F554755201C0E0740D14120289D0E055
:1012B200C000A8551202A6D000C000A85412029085
:1012C200D000C0027AFA1201FAD00222C0027AFADF
:1012D2001201FAD002E55454F0F554E570B40A0252
:1012E2007400540F4554F554755203C0E0740D1444
:1012F200120289D0E0C000A8551202A6D000C00098
:10130200A854120290D000C0027AFA1201FAD00256
:1013120022E570B40B0302135DE570B40C0C74008B
:10132200F554F555755203021215E570B40D16E524
:1013320033B404097533001213E702121505331290
:1013420013E7021215E533B400097533041213E7EB
:1013520002121515331213E7021215E533B4000316
:10136200021215B4013485546285556375640075A3
:10137200650075660012033C855A36C0E07401149C
:1013820012028BD0E0C000A8371202A6D000C00023
:10139200A836120290D000021215B40215855462CA
:1013A20085556375650075660012033C855A3A02DD
:1013B2001215B4031885546285556375640075650A
:1013C2000075660012033C855A3E0212158554626E
:1013D20085556375640075650075660012033C856A
:1013E2005A4202121575540075550022E534B400B4
:1013F2000280030214BED203D208D2A71206D71269
:1014020005FD85515D85505C854F5B854E5A85395A
:101412006185386085375F85365E1203BBC0E07434
:10142200011412028BD0E0C083C082C0E09001465A
:1014320012027ED0E0D082D083C0E0740114120286
:1014420089D0E0C083C082C0E090015712027ED0F2
:10145200E0D082D083120D39C0E0740614120289E2
:10146200D0E085395D85385C85375B85365A120256
:10147200B3C000A8631202A6D000C000A862120284
:1014820090D00020020D120BAA120B030534853AEC
:10149200328026E531B43C2185515D85505C854F13
:1014A2005B854E5A756100756000755F00755E322E
:1014B2001203BB3002030217A80217E7B40102802D
:1014C2000302156AD5320B120BAA120B2205340243
:1014D20015671206D71205FD85515D85505C854F53
:1014E2005B854E5A85396185386085375F85365E02
:1014F2001203BBC0E074011412028BD0E0C083C09F
:1015020082C0E090014612027ED0E0D082D083C039
:10151200E0740114120289D0E0C083C082C0E0905E
:10152200016812027ED0E0D082D083120D39C0E071
:10153200740514120289D0E0755A00755B00755C5F
:1015420000755D0085325A1202B3C000A863120210
:10155200A6D000C000A862120290D000200204C2ED
:10156200A78002D2A70217E7B40202800302160F75
:10157200D2A71206D71205FD85515D85505C854FB5
:101582005B854E5A854161854060853F5F853E5E41
:101592001203BB20020E120BAA120B410534854224
:1015A200320217E7C0E074011412028BD0E0C0834C
:1015B200C082C0E090014612027ED0E0D082D08389
:1015C200C0E0740114120289D0E0C083C082C0E07E
:1015D20090017912027ED0E0D082D083120D39C000
:1015E200E0740614120289D0E085415D85405C8575
:1015F2003F5B853E5A1202B3C000A8631202A6D016
:1016020000C000A862120290D0000217E7B40302E1
:1016120080030216BBD5320B120BAA120B600534E3
:101622000216B8C0E074011412028BD0E0C083C06D
:1016320082C0E090014612027ED0E0D082D083C008
:10164200E0740114120289D0E0C083C082C0E0902D
:10165200018A12027ED0E0D082D083120D391206A6
:10166200D71205FD85515D85505C854F5B854E5ACD
:10167200854161854060853F5F853E5E1203BBC048
:10168200E0740514120289D0E0755A00755B00758A
:101692005C00755D0085325A1202B3C000A8631265
:1016A20002A6D000C000A862120290D0002002045C
:1016B200C2A78002D2A70217E7B40402800302176E
:1016C2005DC2A71206D71205FD85515D85505C8566
:1016D2004F5B854E5A85496185486085475F8546DF
:1016E2005E1203BB3002050534753200C0E074019E
:1016F2001412028BD0E0C083C082C0E09001461277
:10170200027ED0E0D082D083C0E07401141202893C
:10171200D0E0C083C082C0E090019B12027ED0E084
:10172200D082D083120D39C0E0740514120289D020
:10173200E0755A00755B00755C00755D0085465A60
:101742001202B31202B3C000A8631202A6D000C0F4
:1017520000A862120290D0000217E7B405028003CB
:101762000217E7C2A7C203C208C0E0740114120242
:101772008BD0E0C083C082C0E090014612027ED0CE
:10178200E0D082D083C0E0740114120289D0E0C09C
:1017920083C082C0E09001AC12027ED0E0D082D041
:1017A20083120D39803FC2A7C0E074011412028B6C
:1017B200D0E0C083C082C0E09001BD12027ED0E0C2
:1017C200D082D083C0E0740114120289D0E0C083B9
:1017D200C082C0E09001CE12027ED0E0D082D083DF
:0617E200C2087534062266
:00000001FF
