:03000000020C628D
:03000300020DF9F2
:01000B0032C2
:03001300020E09D1
:03001B00020DCC07
:0100230032AA
:03005B0002077D1C
:10005E0030313233343536373839414243444546F0
:10006E003031323334353637383961626364656620
:10007E000057454C434F4D45212020202020202065
:10008E0020005375706572205265666C6F77212063
:10009E0020200053657474696E673A2050726F6643
:1000AE0020202000537461727420202020202020F4
:1000BE0053746F700053544D503A20202053544DBA
:1000CE003A202020730052544D503A202020525492
:1000DE004D3A20202073004F4C443A202020204ED1
:1000EE0045573A20202020004D4F444946593A5456
:1000FE00454D505F534F414B004D4F444946593A81
:10010E0054494D455F534F414B004D4F444946595D
:10011E003A54454D505F52464C57004D4F44494658
:10012E00593A54494D455F52464C57004D4F44493C
:10013E0046593A534146450054454D503A202020E9
:10014E0054494D453A2020200053544D503A20201A
:10015E00202052414D50494E470053544D3A2020D5
:10016E00207320534F414B494E470052544D503A45
:10017E002020202052414D50494E470052544D3AB6
:10018E0020202073205245464C4F57200053465492
:10019E003A2020202020434F4F4C494E470020202C
:1001AE002020202020202046494E4953482000453B
:1001BE0072726F72205761726E696E672120200015
:1001CE0054454D502053656E73696E6720455252EB
:1001DE00007812D8FE22C000784AD8FED000227ACB
:1001EE002879FA78B8D8FED9FADAF622C000C0011A
:1001FE00790A78B8D8FED9FADAF6D001D00022D230
:10020E00831201E4C2831201E422A2E792B0A2E6B5
:10021E009287A2E59286A2E4928512020DA2E39243
:10022E00B0A2E29287A2E19286A2E0928512020D1E
:10023E0022D281020218C281020218C283C282C077
:10024E00027A281201FAD002743312024474331265
:10025E00024474321202447428120244740C1202C4
:10026E00447401120244C0027A021201FAD0022230
:10027E00E493600612023FA380F6224440448002BB
:10028E000244C0E0E8C4540F443012023FE8540F59
:10029E00443012023FD0E022C0E0E8540F44301246
:0502AE00023FD0E02238
:1002B300C0E0C0D0C000C001C002E4F55FF560F546
:1002C30061F562F5637A20E55AA2E779047857E687
:1002D30033F608D9FA7905785FE636D4F608D9F902
:1002E300DAE5D002D001D000D0D0D0E022C0E0C007
:1002F300D0C000C001C002E4F55FF560F561F562AE
:10030300F5637A20E55AA2E779047857E633F608CD
:10031300D9FA7905785FC0D0E6243320E70224D0E8
:1003230020E30224FDD0D033F608D9EADAD6D0028E
:10033300D001D000D0D0D0E022C0E0C0D0C000C0F7
:1003430001C0027A207905C37863E613C0D030E791
:100353000224D030E30224FDF618D0D0D9EC79047E
:10036300785AE613F618D9FADADBD002D001D000B6
:10037300D0D0D0E022C0E0C0D0E557255BF557E5EB
:1003830058355CF558E559355DF559E55A355EF54F
:100393005AD0D0D0E022C0E0C0D0C3E557955BF57A
:1003A30057E558955CF558E559955DF559E55A9526
:1003B3005EF55AD0D0D0E022C0E0C0D0C3E5579557
:1003C3005BE558955CE559955DE55A955E9202D0DB
:1003D300D0D0E022C0E0C0D0C3E55B9557E55C9583
:1003E30058E55D9559E55E955A9202D0D0D0E0224A
:1003F300C0E0C0D0C202C3E55B95577014E55C95BD
:1004030058700EE55D95597008E55E955A7002D2F5
:1004130002D0D0D0E0221203F32002030203D7223A
:100423001203F32002030203BB22C0E0C0F0C0D0DA
:10043300C000C001C002C003E557855BF0A4F8A962
:10044300F0E558855BF0A429F9E435F0FAE5578522
:100453005CF0A429F9E5F03AFAE433FBE559855B4E
:10046300F0A42AFAE5F03BFBE558855CF0A42AFAF0
:10047300E5F03BFBE557855DF0A42AFAE5F03BFB8D
:10048300E55A855BF0A42BFBE559855CF0A42BFBB7
:10049300E558855DF0A42BFBE557855EF0A42BFBA7
:1004A3008B5A8A5989588857D003D002D001D0007B
:1004B300D0D0D0F0D0E022C0E0C0D0C000C001C096
:1004C30002C003C0047C20E4F8F9FAFBC3E5573308
:1004D300F557E55833F558E55933F559E55A33F5EA
:1004E3005AE833F8E933F9EA33FAEB33FBC3E89517
:1004F3005BE9955CEA955DEB955E4013E8955BF8E7
:10050300E9955CF9EA955DFAEB955EFB435701DCEF
:10051300BBD004D003D002D001D000D0D0D0E02291
:10052300C0E090FFDEE04408F0D0E022758400755F
:10053300850075910075920075A40075A50075B1CD
:100543000075B200224384015385FE439180539288
:100553007F43A40353A5FCD2C275A12075A30F75D5
:080563008E05E58E30E3FB225A
:10056B0075BD0075BF0075BE3075BD0375985253D0
:10057B0091FC5392FC2210990280FBF59922E49393
:10058B006006120581A380F622C0E0E8C4540F4434
:10059B0030120581E8540F4430120581D0E02274EB
:1005AB000D120581740A1205812290005EE562C46A
:1005BB00540F93120581E562540F93120581E56187
:1005CB00C4540F93120581E561540F93120581E515
:1005DB0060C4540F93120581E560540F931205818B
:1005EB00E55FC4540F93120581E55F540F93120519
:0205FB0081225B
:1005FD00755700755800755900755A0085C7577F96
:10060D00FF1201DF85C75B755C00755D00755E00CF
:10061D001203781201DFDFEC755B10755C00755D00
:10062D0000755E001204BA755BE8755C80755D003F
:10063D00755E0012042D755B00755C10755D00759F
:10064D005E001204BA755B3C755C00755D00755EED
:10065D0000120399755B0E755C1D755D00755E006E
:10066D0012042D755B10755C27755D00755E0012AB
:10067D0004BA755BB4755C00755D00755E001203A0
:10068D0099854E5E854D5D854C5C854B5B1203787F
:10069D001202B31205B51205AA755B64755C00757F
:1006AD005D00755E001204BA755B5E755C01755D6B
:1006BD0000755E001203BB2002030205FD855A5230
:1006CD0085595185585085574F22755700755800DB
:1006DD00755900755A0085C7577FFF1201DF85F4E4
:1006ED005B755C00755D00755E001203781201DFAD
:1006FD00DFEC755B10755C00755D00755E001204B6
:10070D00BA755BE8755C80755D00755E0012042D31
:10071D00755B00755C10755D00755E001204BA7531
:10072D005B3C755C00755D00755E00120399755B31
:10073D00A4755C6A755D00755E00120399755BF4B6
:10074D00755C01755D00755E00120399855A4E85C5
:09075D00594D85584C85574B227B
:1007660075CDFF75CC5975CFFF75CE5975F9807566
:10077600C980D2ECD2C82275E900D2A6C0E0C0D0AA
:10078600E56545664567601574FF1565B56507152A
:1007960066B5660215671207F5F5F58004C2C8D27C
:1007A600A4D0D0D0E0C2A63243841043851075A1F0
:1007B6002875970475F5802253A4CB43A53443A42A
:1007C6000853A5F775E2D0227A3279C878E6D8FEC2
:1007D600D9FADAF6227A3279C87896D8FED9FADAD0
:1007E600F6227A3279C8785AD8FED9FADAF622F59C
:1007F600E3E5E130E7FBF5E1E5E322C2C8D2A47503
:100806005700755800755900755A008568571202C9
:10081600B3756100755F00E560540F756000F55FA4
:1008260012033C85576AE56AB40003D2062275575F
:1008360000755800755900755A00856A57755B0032
:10084600755C00755D00755E00755BA0755C8C124D
:10085600042D755B38755C97755D08755E0012032F
:1008660078C2A474031207F5E5591207F5E5581284
:1008760007F5E5571207F575670075668C7565A06F
:1008860074001207F5D2C822C2C8D2A475570075E3
:100896005800755900755A008568571202B375617C
:1008A60000756000E55FC4540FF55F12033C855781
:1008B6006AE56AB40003D20722B4010302091F7570
:1008C6005700755800755900755A00856A57755B4B
:1008D60000755C00755D00755E00755B24755C5E79
:1008E60012042D755B40755C7E755D05755E0012A4
:1008F6000378C2A474031207F5E5591207F5E55803
:100906001207F5E5571207F57567007566507565A8
:10091600C374001207F5D2C822C2C8D2A475570004
:10092600755800755900755A008568571202B375D7
:100936006100756000E55F540FF55F12033C855753
:1009460069E569755700755800755900755A00852F
:100956006957755B00755C00755D00755E00755BBB
:10096600FC755C5312042D755BB0755CA7755D0252
:10097600755E00120378755B00755C00755D007529
:100986005E0085545B120378755400C2A47403128A
:1009960007F5E5591207F5E5581207F5E557120769
:1009A600F57567007566537565FC74001207F5D218
:1009B600C8D20522300503C20522C2C8D2A4755783
:1009C60000755800755900755A008568571202B3AC
:1009D600756100756000E55F540FF55F12033C8595
:1009E6005769E569B4000420070122755700755858
:1009F60000755900755A00856957755B00755C006E
:100A0600755D00755E00755B30755C4312042D756F
:100A16005BFF755C00755D00755E00120378C2A40D
:100A260074031207F5E5591207F5E5581207F5E5BF
:100A3600571207F575670075663E7565A474001252
:100A460007F5D2C8221208012006031207CEC206F5
:100A560012088E2007031207E81209BAC207120706
:100A6600E8227557D075584875590A755A00755B4E
:100A7600B8755C88755D00755E00120B7F1207CE37
:100A8600227557707558D575590A755A00755B0ADF
:100A9600755C2B755D00755E00120B7F1207E822F0
:100AA60075574C75582C75590B755A00755B6875DA
:100AB6005C42755D00755E00120B7F1207CE2275D3
:100AC600570875588D75590B755A00755B78755CA6
:100AD60069755D00755E00120B7F1207CE22755791
:100AE600F075580D75590C755A00755BA8755C61E3
:100AF600755D00755E00120B7F1207CE227557F0EA
:100B060075588A75590C755A00755B78755C6975E8
:100B16005D00755E00120B7F1207CE227557A87511
:100B2600581375590D755A00755BA8755C61755D2E
:100B360000755E00120B7F1207CE22755708755896
:100B46008175590D755A00755B98755C3A755D002F
:100B5600755E00120B7F1207DB227557107558D38E
:100B660075590D755A00755BB0755C36755D007507
:100B76005E00120B7F1207E822C2C8D2A4C2A47478
:100B8600031207F5E5591207F5E5581207F5E5577B
:100B96001207F5756700855C66855B65740012074C
:090BA600F5D2C822C2C8D2A42273
:100BAF00C0E0120BC3120C14C0027A961201FAD0D5
:100BBF0002D0E022756C00C3E5C594A34004756CA8
:100BCF000722C3E5C594914004756C0622C3E5C5A1
:100BDF0094784004756C0522C3E5C5946240047592
:100BEF006C0422C3E5C594444004756C0322C3E52D
:100BFF00C594334004756C0222C3E5C594134004B9
:100C0F00756C012222C3E5C694C44004756C0E2294
:100C1F00C3E5C694AF4004756C0D22C3E5C694902E
:100C2F004004756C0C22C3E5C694714004756C0BBF
:100C3F0022C3E5C694524004756C0A22C3E5C694DC
:100C4F00334004756C0922C3E5C694144004756CD7
:030C5F0008222246
:100C620075817F12052F12024912056B120548C0C9
:100C7200E074011412028BD0E0C083C082C0E09005
:100C8200007F12027ED0E0D082D083C0E0740114D3
:100C9200120289D0E0C083C082C0E09000901202AC
:100CA2007ED0E0D082D083120D8D1207AE1207667D
:100CB2001207BE120D30120D33753A0075390075E8
:100CC2003800753796754200754100754000753FD2
:100CD200D9753E00753D00753C00753B3C7546007C
:100CE20075450075440075434B754A00754900759A
:100CF200480075473CC2C8D2AFC2A71201ED20011D
:100D020003020E183004F7C2040564E564B4050951
:100D1200756400300803120DBC80E3E589540F446A
:100D220010F589758D6F758BFFD2ABD28E22D2A84A
:100D320022D2AA22C0E074061412028BD0E085529D
:100D42005A855159855058854F571202B3C000A891
:100D5200601202A6D000C000A85F120290D000C0AC
:100D6200E0740E1412028BD0E0755A00755900859A
:100D720032588531571202B3C000A8601202A6D0C1
:100D820000C000A85F120290D000227532007531B7
:100D9200007534007535007555007556007568008C
:100DA200756400756B00755303C296C208C203C214
:100DB20005C206C207C201C2A722120A68854F688D
:100DC200120A4B120A87120AA622758D6F758BFFC3
:100DD200B2A6C0E0C0D00530E530B46415D204300C
:100DE20003080531E53170020532753000B2961202
:100DF20013C4D0D0D0E032C288C2A8D201120AC530
:100E0200120AE4120D1D32C28AC28EC2A7D2A812E1
:100E12000BAA120D8D32E5348003020F6EB400FA74
:100E2200C0E074011412028BD0E0C083C082C0E023
:100E32009000C312027ED0E0D082D083C0E0740161
:100E420014120289D0E0C083C082C0E09000D412A4
:100E5200027ED0E0D082D083C0E0740D14120289E9
:100E6200D0E0755700755800755900755A008543D2
:100E7200571202B3C000A8601202A6D000C000A898
:100E82005F120290D000C0E0740D1412028BD0E009
:100E9200755700755800755900755A00853B5712F1
:100EA20002B3C000A8601202A6D000C000A85F1260
:100EB2000290D000C0E0740614120289D0E0755787
:100EC20000755800755900755A00853F571202B3D4
:100ED200C000A8601202A6D000C000A85F12029053
:100EE200D000C0E074061412028BD0E07557007572
:100EF2005800755900755A008537571202B3C00061
:100F0200A8601202A6D000C000A85F120290D00012
:100F1200120BAF755700755800755900755A008548
:100F22006C57755B0D755C00755D00755E00120394
:100F3200F330020805341213BD0211EB7557007528
:100F42005800755900755A00856C57755B0E755CB3
:100F520000755D00755E001203F3300209753404FA
:100F62001213BD0211EB0211EB02100EB401FAC012
:100F7200E074011412028BD0E0C083C082C0E09002
:100F820000F612027ED0E0D082D083C0E074011459
:100F9200120289D0E0C083C082C0E09000E5120254
:100FA2007ED0E0D082D083C0E0740514120289D0D2
:100FB200E08537571202B3C000A8601202A6D00023
:100FC200C000A85F120290D000C0E0740D1412029B
:100FD20089D0E0C000A8561202A6D000C000A855D1
:100FE200120290D0001211EE3002181212171211D2
:100FF200EE30020F1212171211EE30020612121701
:101002000210080212E9020D000210AEB402FAC088
:10101200E074011412028BD0E0C083C082C0E09061
:10102200010712027ED0E0D082D083C0E0740114A6
:10103200120289D0E0C083C082C0E09000E51202B3
:101042007ED0E0D082D083C0E0740514120289D031
:10105200E0853B571202B3C000A8601202A6D0007E
:10106200C000A85F120290D000C0E0740D141202FA
:1010720089D0E0C000A8561202A6D000C000A85530
:10108200120290D0001211EE300218121217121131
:10109200EE30020F1212171211EE30020612121760
:1010A2000210A80212E9020D0002114EB403FAC0A6
:1010B200E074011412028BD0E0C083C082C0E090C1
:1010C200011812027ED0E0D082D083C0E0740114F5
:1010D200120289D0E0C083C082C0E09000E5120213
:1010E2007ED0E0D082D083C0E0740514120289D091
:1010F200E0853F571202B3C000A8601202A6D000DA
:10110200C000A85F120290D000C0E0740D14120259
:1011120089D0E0C000A8561202A6D000C000A8558F
:10112200120290D0001211EE300218121217121190
:10113200EE30020F1212171211EE300206121217BF
:101142000211480212E9020D000211EBB404FAC0C6
:10115200E074011412028BD0E0C083C082C0E09020
:10116200012912027ED0E0D082D083C0E074011443
:10117200120289D0E0C083C082C0E09000E5120272
:101182007ED0E0D082D083C0E0740514120289D0F0
:10119200E08543571202B3C000A8601202A6D00035
:1011A200C000A85F120290D000C0E0740D141202B9
:1011B20089D0E0C000A8561202A6D000C000A855EF
:1011C200120290D0001211EE3002181212171211F0
:1011D200EE30020F1212171211EE3002061212171F
:1011E2000211E80212E9020D00020D00120BAF75A6
:1011F2005700755800755900755A00856C57755B14
:101202000B755C00755D00755E001203BBE56CB486
:10121200000280D822E553B4033DC0027AFA1201DB
:10122200FAD002E56CB40A027400540FF5567553F5
:1012320002C0E0740D14120289D0E0C000A8561258
:1012420002A6D000C000A855120290D000C0027AB7
:10125200FA1201FAD00222E553B40246C0027AFA27
:101262001201FAD002E555540FF555E56CB40A02A5
:101272007400540FC44555F555755301C0E0740D03
:1012820014120289D0E0C000A8561202A6D000C0F3
:1012920000A855120290D000C0027AFA1201FAD0C8
:1012A2000222C0027AFA1201FAD002E55554F0F590
:1012B20055E56CB40A027400540F4555F555755343
:1012C20003C0E0740D14120289D0E0C000A85612C7
:1012D20002A6D000C000A855120290D000C0027A27
:1012E200FA1201FAD00222E56CB40B03021333E5C1
:1012F2006CB40C0C7400F555F5567553030211EBE2
:10130200E56CB40D16E534B404097534001213BD4E
:101312000211EB05341213BD0211EBE534B40009DE
:101322007534041213BD0211EB15341213BD0211F0
:10133200EBE534B400030211EBB4013485555F854B
:10134200566075610075620075630012033C855733
:1013520037C0E074011412028BD0E0C000A838122A
:1013620002A6D000C000A837120290D0000211EBF2
:10137200B4021585555F855660756200756300126B
:10138200033C85573B0211EBB4031885555F855624
:101392006075610075620075630012033C85573FFA
:1013A2000211EB85555F85566075610075620075A7
:1013B200630012033C8557430211EB7555007556C5
:1013C2000022E535B400028003021494D203D2084D
:1013D200D2A71206D71205FD85525A85515985505A
:1013E20058854F57853A5E85395D85385C85375B10
:1013F2001203BBC0E074011412028BD0E0C083C0A0
:1014020082C0E090014612027ED0E0D082D083C03A
:10141200E0740114120289D0E0C083C082C0E0905F
:10142200015712027ED0E0D082D083120D36C0E086
:10143200740614120289D0E0853A5A8539598538E2
:10144200588537571202B3C000A8601202A6D00016
:10145200C000A85F120290D00020020D120BAA1247
:101462000B030535853B338026E531B43C2185529B
:101472005A855159855058854F57755E00755D00E4
:10148200755C00755B321203BB30020302177E02E9
:1014920017BDB401028003021540D5330B120BAA0B
:1014A200120B22053502153D1206D71205FD855293
:1014B2005A855159855058854F57853A5E85395D11
:1014C20085385C85375B1203BBC0E07401141202DD
:1014D2008BD0E0C083C082C0E090014612027ED071
:1014E200E0D082D083C0E0740114120289D0E0C03F
:1014F20083C082C0E090016812027ED0E0D082D028
:1015020083120D36C0E0740514120289D0E07557BB
:1015120000755800755900755A008533571202B389
:10152200C000A8601202A6D000C000A85F120290FC
:10153200D000200204C2A78002D2A70217BDB402C3
:101542000280030215E5D2A71206D71205FD8552C5
:101552005A855159855058854F5785425E85415D60
:1015620085405C853F5B1203BB20020E120BAA1260
:101572000B4105358543330217BDC0E074011412D7
:10158200028BD0E0C083C082C0E090014612027E8E
:10159200D0E0D082D083C0E0740114120289D0E07E
:1015A200C083C082C0E090017912027ED0E0D08276
:1015B200D083120D36C0E0740614120289D0E08581
:1015C200425A854159854058853F571202B3C0009F
:1015D200A8601202A6D000C000A85F120290D0003C
:1015E2000217BDB403028003021691D5330B120B0E
:1015F200AA120B60053502168EC0E07401141202A5
:101602008BD0E0C083C082C0E090014612027ED03F
:10161200E0D082D083C0E0740114120289D0E0C00D
:1016220083C082C0E090018A12027ED0E0D082D0D4
:1016320083120D361206D71205FD85525A8551596D
:10164200855058854F5785425E85415D85405C8552
:101652003F5B1203BBC0E0740514120289D0E0752F
:101662005700755800755900755A00853357120294
:10167200B3C000A8601202A6D000C000A85F120288
:1016820090D000200204C2A78002D2A70217BDB4E4
:1016920004028003021733C2A71206D71205FD8582
:1016A200525A855159855058854F57854A5E85490A
:1016B2005D85485C85475B1203BB300205053575C5
:1016C2003300C0E074011412028BD0E0C083C082E8
:1016D200C0E090014612027ED0E0D082D083C0E00A
:1016E200740114120289D0E0C083C082C0E090016C
:1016F2009B12027ED0E0D082D083120D36C0E074FD
:101702000514120289D0E07557007558007559000A
:10171200755A008547571202B31202B3C000A8607F
:101722001202A6D000C000A85F120290D0000217D9
:10173200BDB4050280030217BDC2A7C203C208C01E
:10174200E074011412028BD0E0C083C082C0E0902A
:10175200014612027ED0E0D082D083C0E074011430
:10176200120289D0E0C083C082C0E09001AC1202B4
:101772007ED0E0D082D083120D36803FC2A7C0E077
:1017820074011412028BD0E0C083C082C0E09001C9
:10179200BD12027ED0E0D082D083C0E07401141268
:1017A2000289D0E0C083C082C0E09001CE12027EE6
:0C17B200D0E0D082D083C208753506223A
:00000001FF
