:03000000020C1DD2
:03000300020CCD1F
:01000B0032C2
:03001300020CD606
:03001B00020CA331
:0100230032AA
:03005B0002076435
:10005E0030313233343536373839414243444546F0
:10006E003031323334353637383961626364656620
:10007E000057454C434F4D45212020202020202065
:10008E0020005375706572205265666C6F77212063
:10009E0020200053657474696E673A2050726F6643
:1000AE0020202000537461727420202020202020F4
:1000BE0053746F700053544D503A20202053544DBA
:1000CE003A202020730052544D503A202020525492
:1000DE004D3A20202073004F4C443A202020204ED1
:1000EE0045573A20202020004D4F444946593A5456
:1000FE00454D505F534F414B004D4F444946593A81
:10010E0054494D455F534F414B004D4F444946595D
:10011E003A54454D505F52464C57004D4F44494658
:10012E00593A54454D505F534F414B004D4F444942
:10013E0046593A54454D505F534F414B0054454D2F
:10014E00503A20202054494D453A20202000535447
:10015E004D503A2020202052414D50494E470053D9
:10016E00544D3A2020207320534F414B494E4700A7
:10017E0052544D503A2020202052414D50494E4766
:10018E000052544D3A20202073205245464C4F5772
:10019E0020005346543A2020202020434F4F4C49F4
:1001AE004E470020202020202020202046494E4966
:1001BE00534820004572726F72205761726E696EDD
:1001CE00672120200054454D502053656E73696E93
:1001DE006720455252007812D8FE22C000784AD8C5
:1001EE00FED000227A2879FA78B8D8FED9FADAF653
:1001FE0022C000C001790A78B8D8FED9FADAF6D052
:10020E0001D00022D2831201E9C2831201E922A297
:10021E00E792B0A2E69287A2E59286A2E4928512B8
:10022E000212A2E392B0A2E29287A2E19286A2E02B
:10023E00928512021222D28102021DC28102021D79
:10024E00C283C282C0027A281201FFD00274331216
:10025E00024974331202497432120249742812028E
:10026E0049740C1202497401120249C0027A021238
:10027E0001FFD00222E4936006120244A380F6220C
:10028E0044404480020249C0E0E8C4540F44301296
:10029E000244E8540F4430120244D0E022C0E0E899
:0A02AE00540F4430120244D0E02245
:1002B800C0E0C0D0C000C001C002E4F562F563F53B
:1002C80064F565F5667A20E55DA2E77904785AE673
:1002D80033F608D9FA79057862E636D4F608D9F9FA
:1002E800DAE5D002D001D000D0D0D0E022C0E0C002
:1002F800D0C000C001C002E4F562F563F564F5659D
:10030800F5667A20E55DA2E77904785AE633F608BF
:10031800D9FA79057862C0D0E6243320E70224D0E0
:1003280020E30224FDD0D033F608D9EADAD6D00289
:10033800D001D000D0D0D0E022C0E0C0D0C000C0F2
:1003480001C0027A207905C37866E613C0D030E789
:100358000224D030E30224FDF618D0D0D9EC790479
:10036800785DE613F618D9FADADBD002D001D000AE
:10037800D0D0D0E022C0E0C0D0E55A255EF55AE5DD
:100388005B355FF55BE55C3560F55CE55D3561F532
:100398005DD0D0D0E022C0E0C0D0C3E55A955EF56C
:1003A8005AE55B955FF55BE55C9560F55CE55D9509
:1003B80061F55DD0D0D0E022C0E0C0D0C3E55A9549
:1003C8005EE55B955FE55C9560E55D95619202D0C1
:1003D800D0D0E022C0E0C0D0C3E55E955AE55F9575
:1003E8005BE560955CE561955D9202D0D0D0E02236
:1003F800C0E0C0D0C202C3E55E955A7014E55F95AF
:100408005B700EE560955C7008E561955D7002D2E1
:1004180002D0D0D0E0221203F82002030203DC222B
:100428001203F82002030203C022C0E0C0F0C0D0CB
:10043800C000C001C002C003E55A855EF0A4F8A957
:10044800F0E55B855EF0A429F9E435F0FAE55A8514
:100458005FF0A429F9E5F03AFAE433FBE55C855E40
:10046800F0A42AFAE5F03BFBE55B855FF0A42AFAE5
:10047800E5F03BFBE55A8560F0A42AFAE5F03BFB82
:10048800E55D855EF0A42BFBE55C855FF0A42BFBA6
:10049800E55B8560F0A42BFBE55A8561F0A42BFB96
:1004A8008B5D8A5C895B885AD003D002D001D0006A
:1004B800D0D0D0F0D0E022C0E0C0D0C000C001C091
:1004C80002C003C0047C20E4F8F9FAFBC3E55A3300
:1004D800F55AE55B33F55BE55C33F55CE55D33F5D3
:1004E8005DE833F8E933F9EA33FAEB33FBC3E8950F
:1004F8005EE9955FEA9560EB95614013E8955EF8D3
:10050800E9955FF9EA9560FAEB9561FB435A01DCDE
:10051800BBD004D003D002D001D000D0D0D0E0228C
:10052800C0E090FFDEE04408F0D0E022758400755A
:10053800850075910075920075A40075A50075B1C8
:100548000075B200224384015385FE439180539283
:100558007F43A40353A5FCD2C275A12075A30F75D0
:080568008E05E58E30E3FB2255
:1005700075BD0075BF0075BE3075BD0375985253CB
:1005800091FC5392FC2210990280FBF59922E4938E
:100590006006120586A380F622C0E0E8C4540F442A
:1005A00030120586E8540F4430120586D0E02274DC
:1005B0000D120586740A1205862290005EE565C458
:1005C000540F93120586E565540F93120586E56472
:1005D000C4540F93120586E564540F93120586E503
:1005E00063C4540F93120586E563540F9312058676
:1005F000E562C4540F93120586E562540F93120509
:02060000862250
:10060200755A00755B00755C00755D0085C75A7F81
:10061200FF1201E485C75E755F00756000756100B9
:1006220012037D1201E4DFEC755E10755F007560E8
:10063200007561001204BF755EE8755F8075600029
:10064200756100120432755E00755F107560007589
:1006520061001204BF755E3C755F007560007561D4
:100662000012039E755E0E755F1D75600075610058
:10067200120432755E10755F277560007561001295
:1006820004BF854D61854C60854B5F854A5E1203D0
:100692007D1202B81205BA1205AF755E64755F006D
:1006A2007560007561001204BF755E5E755F01754D
:1006B20060007561001203C0200203020602855D1C
:1006C20051855C50855B4F855A4E22755A00755B89
:1006D20000755C00755D0085C75A7FFF1201E485D5
:1006E200F45E755F0075600075610012037D120192
:1006F200E4DFEC755E10755F0075600075610012D5
:1007020004BF755EE8755F80756000756100120454
:1007120032755E00755F107560007561001204BF6E
:10072200755E3C755F0075600075610012039E7511
:100732005EA4755F6A75600075610012039E855D37
:0B0742004D855C4C855B4B855A4A22BC
:10074D0075CDFF75CC5975CFFF75CE5975F980757F
:10075D00C980D2ECD2C82275E900D2A6C0E0C0D0C3
:10076D00E5684569456A601574FF1568B568071534
:10077D0069B56902156A1207DCF5F58004C2C8D2A5
:10078D00A4D0D0D0E0C2A63243841043851075A109
:10079D002875970475F5802253A4CB43A53443A443
:1007AD000853A5F775E2D0227A3279C878E6D8FEDB
:1007BD00D9FADAF6227A3279C87896D8FED9FADAE9
:1007CD00F6227A3279C8785AD8FED9FADAF622F5B5
:1007DD00E3E5E130E7FBF5E1E5E322C2C8D2A4751C
:1007ED005A00755B00755C00755D00856B5A1202D1
:1007FD00B8756400756200E563540F756300F562AA
:10080D00120341855A6DE56DB40003D20622755A67
:10081D0000755B00755C00755D00856D5A755E0039
:10082D00755F00756000756100755E88755F90126B
:10083D000432755E38755F97756008756100120337
:10084D007DC2A474031207DCE55C1207DCE55B12C4
:10085D0007DCE55A1207DC756A00756990756888C2
:10086D0074001207DCD2C822C2C8D2A4755A007512
:10087D005B00755C00755D00856B5A1202B875647E
:10088D0000756300E562C4540FF562120341855A89
:10089D006DE56DB40003D20722B40103020906759C
:1008AD005A00755B00755C00755D00856D5A755E4F
:1008BD0000755F00756000756100755E24755F5E83
:1008CD00120432755E40755F7E75600575610012AC
:1008DD00037DC2A474031207DCE55C1207DCE55B43
:1008ED001207DCE55A1207DC756A007569507568E8
:1008FD00C374001207DCD2C822C2C8D2A4755A0034
:10090D00755B00755C00755D00856B5A1202B875DC
:10091D006400756300E562540FF562120341855A58
:10092D006CE56C755A00755B00755C00755D008536
:10093D006C5A755E00755F00756000756100755EBF
:10094D00FC755F53120432755EB0755FA77560025A
:10095D0075610012037D755E00755F007560007531
:10096D006100856E5E12037D756E00C2A474031264
:10097D0007DCE55C1207DCE55B1207DCE55A1207C4
:10098D00DC756A007569537568FC74001207DCD25A
:10099D00C8D20522300503C20522C2C8D2A4755A99
:1009AD0000755B00755C00755D00856B5A1202B8B1
:1009BD00756400756300E562540FF562120341859D
:1009CD005A6CE56CB4000122755A00755B00755CBC
:1009DD0000755D00856C5A755E00755F0075600071
:1009ED00756100755E30755F43120432755EFF757B
:1009FD005F0075600075610012037DC2A47403125F
:100A0D0007DCE55C1207DCE55B1207DCE55A120733
:100A1D00DC756A0075693E7568A474001207DCD236
:100A2D00C8221207E82006031207B5C20612087580
:100A3D002007031207CFC2071209A11207CF227593
:100A4D005AD0755B48755C0A755D00755EB8755F4B
:100A5D0088756000756100120B631207B522755A17
:100A6D0070755BD5755C0A755D00755E0A755F2BDB
:100A7D00756000756100120B631207CF22755A4C19
:100A8D00755B2C755C0B755D00755E68755F4275E9
:100A9D006000756100120B631207B522755A087557
:100AAD005B8D755C0B755D00755E78755F69756046
:100ABD0000756100120B631207B522755AF0755B54
:100ACD000D755C0C755D00755EA8755F61756000D8
:100ADD00756100120B631207B522755AF0755B8AAA
:100AED00755C0C755D00755E78755F697560007578
:100AFD006100120B631207B522755AA8755B137549
:100B0D005C0D755D00755EA8755F61756000756142
:100B1D0000120B631207B522755A08755B81755C5F
:100B2D000D755D00755E98755F3A756000756100B5
:100B3D00120B631207C222755A10755BD3755C0DCB
:100B4D00755D00755EB0755F36756000756100127C
:100B5D000B631207CF22C2C8D2A4C2A4740312071A
:100B6D00DCE55C1207DCE55B1207DCE55A1207DCFD
:100B7D00756A00855F69855E6874001207DCD2C8EE
:010B8D002245
:100B8E0075310075390075380075370075369675F4
:100B9E004100754000753F00753ED9753D00753CAE
:100BAE0000753B00753A3C75450075440075430071
:100BBE0075424B75490075480075470075463C7582
:100BCE003300753400756B00756E00756700C203D7
:100BDE00C205C206C207C0E0740114120290D0E032
:100BEE00C083C082C0E090007F120283D0E0D0822A
:100BFE00D083C0E074011412028ED0E0C083C08294
:100C0E00C0E0900090120283D0E0D082D083227593
:100C1E00817F12053412024E12057012054DC0E08E
:100C2E00740114120290D0E0C083C082C0E0900024
:100C3E007F120283D0E0D082D083C0E07401141200
:100C4E00028ED0E0C083C082C0E09000901202837A
:100C5E00D0E0D082D083120B8E12079512074D1260
:100C6E0007A5120CCA120CD3C2C8D2AFC2A7300449
:100C7E00FDC2040567E567B4050675670012110B22
:100C8E0080ECE589540F4410F589758D6F758BFFD7
:100C9E00D2ABD28E22758D6F758BFFB2A6C0E0C01F
:100CAE00D00530E530B4640FD2043003020531753F
:100CBE003000B2B1120D35D0D0D0E032D2A822C25F
:100CCE0088120C9032D2AA22C28AC28E120B8E3297
:100CDE00C0E0740614120290D0E085515D85505C20
:100CEE00854F5B854E5A1202B8C000A8631202AB44
:100CFE00D000C000A862120295D000C0E0740E149D
:100D0E00120290D0E0755D00755C00755B00853158
:100D1E005A1202B8C000A8631202ABD000C000A8DD
:100D2E0062120295D00022E534B400028003020D57
:100D3E00FDD203D2A71206CD12060285515D855053
:100D4E005C854F5B854E5A85396185386085375F86
:100D5E0085365E1203C0C0E0740114120290D0E01A
:100D6E00C083C082C0E090014B120283D0E0D082DB
:100D7E00D083C0E074011412028ED0E0C083C08212
:100D8E00C0E090015C120283D0E0D082D083120CBE
:100D9E00DEC0E074061412028ED0E085395D85380F
:100DAE005C85375B85365A1202B8C000A863120202
:100DBE00ABD000C000A862120295D0002002070539
:100DCE0034853A328026E531B43C2185515D85501B
:100DDE005C854F5B854E5A756100756000755F00CE
:100DEE00755E321203C03002030210CE02110AB435
:100DFE0001028003020EA3D532050534020EA012A5
:100E0E0006CD12060285515D85505C854F5B854E81
:100E1E005A85396185386085375F85365E1203C025
:100E2E00C0E0740114120290D0E0C083C082C0E012
:100E3E0090014B120283D0E0D082D083C0E07401C7
:100E4E001412028ED0E0C083C082C0E090016D12F9
:100E5E000283D0E0D082D083120CDEC0E074051481
:100E6E0012028ED0E0755A00755B00755C00755DE0
:100E7E000085325A1202B8C000A8631202ABD0002D
:100E8E00C000A862120295D000200204C2A7800200
:100E9E00D2A702110AB402028003020F42D2A71295
:100EAE0006CD12060285515D85505C854F5B854EE1
:100EBE005A854161854060853F5F853E5E1203C065
:100ECE00200208053485423202110AC0E074011472
:100EDE00120290D0E0C083C082C0E090014B12029B
:100EEE0083D0E0D082D083C0E074011412028ED081
:100EFE00E0C083C082C0E090017E120283D0E0D0B9
:100F0E0082D083120CDEC0E074061412028ED0E082
:100F1E0085415D85405C853F5B853E5A1202B8C0B7
:100F2E0000A8631202ABD000C000A862120295D0D6
:100F3E000002110AB403028003020FE8D532050540
:100F4E0034020FE5C0E0740114120290D0E0C083A9
:100F5E00C082C0E090014B120283D0E0D082D083D9
:100F6E00C0E074011412028ED0E0C083C082C0E0D3
:100F7E0090018F120283D0E0D082D083120CDE1249
:100F8E0006CD12060285515D85505C854F5B854E00
:100F9E005A854161854060853F5F853E5E1203C084
:100FAE00C0E074051412028ED0E0755A00755B0015
:100FBE00755C00755D0085325A1202B8C000A863D8
:100FCE001202ABD000C000A862120295D00020021F
:100FDE0004C2A78002D2A702110AB404028003023F
:100FEE00108AC2A71206CD12060285515D85505C8D
:100FFE00854F5B854E5A85496185486085475F857B
:10100E00465E1203C03002050534753200C0E0742E
:10101E000114120290D0E0C083C082C0E090014B58
:10102E00120283D0E0D082D083C0E0740114120289
:10103E008ED0E0C083C082C0E09001A0120283D0A7
:10104E00E0D082D083120CDEC0E074051412028E42
:10105E00D0E0755A00755B00755C00755D008546C5
:10106E005A1202B81202B8C000A8631202ABD00026
:10107E00C000A862120295D00002110AB4057DC20A
:10108E00A7C203C0E0740114120290D0E0C083C066
:10109E0082C0E090014B120283D0E0D082D083C098
:1010AE00E074011412028ED0E0C083C082C0E090C2
:1010BE0001B1120283D0E0D082D083120CDE803CCC
:1010CE00C2A7C0E0740114120290D0E0C083C082A7
:1010DE00C0E09001C2120283D0E0D082D083C0E083
:1010EE0074011412028ED0E0C083C082C0E0900161
:1010FE00D3120283D0E0D082D083053422120A4C60
:0D110E00854E6B120A2F120A6B120A8A22FC
:00000001FF
