:030000000204A750
:10000300C200C201C202C203120128300003D2019E
:1000130022120160300003D20222D20322C0E0C0C8
:10002300D0C000C001C002E4F538F539F53AF53B1C
:10003300F53C7A20E533A2E779047830E633F60815
:10004300D9FA79057838E636D4F608D9F9DAE5D05D
:1000530002D001D000D0D0D0E022C0E0C0D0C00098
:10006300C001C002E4F538F539F53AF53BF53C7AC1
:1000730020E533A2E779047830E633F608D9FA7934
:10008300057838C0D0E6243320E70224D020E302E9
:1000930024FDD0D033F608D9EADAD6D002D001D085
:1000A30000D0D0D0E022C0E0C0D0C000C001C00268
:1000B3007A207905C3783CE613C0D030E70224D018
:1000C30030E30224FDF618D0D0D9EC79047833E676
:1000D30013F618D9FADADBD002D001D000D0D0D091
:1000E300E022C0E0C0D0E5302534F530E5313535C8
:1000F300F531E5323536F532E5333537F533D0D0E2
:10010300D0E022C0E0C0D0C3E5309534F530E5310E
:100113009535F531E5329536F532E5339537F533D7
:10012300D0D0D0E022C0E0C0D0C3E5309534E53173
:100133009535E5329536E53395379200D0D0D0E04A
:1001430022C0E0C0D0C3E5349530E5359531E536BE
:100153009532E53795339200D0D0D0E022C0E0C08D
:10016300D0C200C3E53495307014E5359531700E77
:10017300E53695327008E53795337002D200D0D05A
:10018300D0E0221201602000030201442212016028
:1001930020000302012822C0E0C0F0C0D0C000C08C
:1001A30001C002C003E5308534F0A4F8A9F0E531BD
:1001B3008534F0A429F9E435F0FAE5308535F0A467
:1001C30029F9E5F03AFAE433FBE5328534F0A42A61
:1001D300FAE5F03BFBE5318535F0A42AFAE5F03B7F
:1001E300FBE5308536F0A42AFAE5F03BFBE53385E1
:1001F30034F0A42BFBE5328535F0A42BFBE53185E8
:1002030036F0A42BFBE5308537F0A42BFB8B338A28
:100213003289318830D003D002D001D000D0D0D081
:10022300F0D0E022C0E0C0D0C000C001C002C003D3
:10023300C0047C20E4F8F9FAFBC3E53033F530E57C
:100243003133F531E53233F532E53333F533E83322
:10025300F8E933F9EA33FAEB33FBC3E89534E9956C
:1002630035EA9536EB95374013E89534F8E995353B
:10027300F9EA9536FAEB9537FB433001DCBBD00442
:10028300D003D002D001D000D0D0D0E02210990208
:1002930080FBF5992210980280FBE599227A287950
:1002A300FA78B8D8FED9FADAF62275BD0075BF0020
:1002B30075BE3075BD037598527591007592002215
:1002C3004384015385FE43918053927F43A4035398
:1002D300A5FCD2C275A12075A30F758E05E58E30DE
:1002E300E3FB223031323334353637383941424338
:1002F3004445469002E6E53BC4540F93120290E551
:100303003B540F93120290E53AC4540F9312029098
:10031300E53A540F93120290E539C4540F93120235
:1003230090E539540F93120290E538C4540F931299
:100333000290E538540F9312029022740D1202902A
:10034300740A12029022E4936006120290A380F6CC
:10035300227812D8FE220D0A5038394C50433933D3
:1003630035312041444320646563696D6174696F6D
:100373006E206578616D706C652E0D0A0075300016
:1003830075310075320075330085C5307FFF120368
:100393005485C5347535007536007537001200E590
:1003A300120354DFEC75341075350075360075375C
:1003B300001202277534E8753580753600753700ED
:1003C30012019A75340075351075360075370012B1
:1003D300022775343C7535007536007537001201F8
:1003E3000685333F85323E85313D85303C75340E7D
:1003F30075351D75360075370012019A7534107501
:100403003527753600753700120227853337853255
:1004130036853135853034227530007531007532BB
:100423000075330085C5307FFF12035485C63475CC
:1004330035007536007537001200E5120354DFEC02
:10044300753410753500753600753700120227753F
:1004530034E875358075360075370012019A7534A6
:100463000075351075360075370012022775343C58
:1004730075350075360075370012010685333B85E7
:10048300323A8531398530387534A475356A753615
:1004930000753700120106853333853232853131D9
:1004A3008530302275817F1202AD1202C31202A081
:1004B30090035912034912041B120380853B3385B1
:1004C3003A328539318538301200201202F6742011
:1004D30012029085333385323285313185303012C3
:1004E30000201202F67420120290853F33853E32BB
:1004F300853D31853C301200201202F67420120231
:100503009085373385363285353185343012002076
:100513001202F6742012029012033E1202A0020489
:01052300B91E
:00000001FF
