:030000000204A750
:10000300C200C203C201C202120128300003D2039C
:1000130022120160300003D20122D20222C0E0C0CA
:10002300D0C000C001C002E4F548F549F54AF54BDC
:10003300F54C7A20E543A2E779047840E633F608E5
:10004300D9FA79057848E636D4F608D9F9DAE5D04D
:1000530002D001D000D0D0D0E022C0E0C0D0C00098
:10006300C001C002E4F548F549F54AF54BF54C7A71
:1000730020E543A2E779047840E633F608D9FA7914
:10008300057848C0D0E6243320E70224D020E302D9
:1000930024FDD0D033F608D9EADAD6D002D001D085
:1000A30000D0D0D0E022C0E0C0D0C000C001C00268
:1000B3007A207905C3784CE613C0D030E70224D008
:1000C30030E30224FDF618D0D0D9EC79047843E666
:1000D30013F618D9FADADBD002D001D000D0D0D091
:1000E300E022C0E0C0D0E5402544F540E541354578
:1000F300F541E5423546F542E5433547F543D0D072
:10010300D0E022C0E0C0D0C3E5409544F540E541CE
:100113009545F541E5429546F542E5439547F54357
:10012300D0D0D0E022C0E0C0D0C3E5409544E54143
:100133009545E5429546E54395479200D0D0D0E0FA
:1001430022C0E0C0D0C3E5449540E5459541E5466E
:100153009542E54795439200D0D0D0E022C0E0C05D
:10016300D0C200C3E54495407014E5459541700E37
:10017300E54695427008E54795437002D200D0D01A
:10018300D0E0221201602000030201442212016028
:1001930020000302012822C0E0C0F0C0D0C000C08C
:1001A30001C002C003E5408544F0A4F8A9F0E5418D
:1001B3008544F0A429F9E435F0FAE5408545F0A437
:1001C30029F9E5F03AFAE433FBE5428544F0A42A41
:1001D300FAE5F03BFBE5418545F0A42AFAE5F03B5F
:1001E300FBE5408546F0A42AFAE5F03BFBE54385B1
:1001F30044F0A42BFBE5428545F0A42BFBE54185A8
:1002030046F0A42BFBE5408547F0A42BFB8B438AE8
:100213004289418840D003D002D001D000D0D0D051
:10022300F0D0E022C0E0C0D0C000C001C002C003D3
:10023300C0047C20E4F8F9FAFBC3E54033F540E55C
:100243004133F541E54233F542E54333F543E833C2
:10025300F8E933F9EA33FAEB33FBC3E89544E9955C
:1002630045EA9546EB95474013E89544F8E99545EB
:10027300F9EA9546FAEB9547FB434001DCBBD00412
:10028300D003D002D001D000D0D0D0E02210990208
:1002930080FBF5992210980280FBE599227A287950
:1002A300FA78B8D8FED9FADAF62275BD0075BF0020
:1002B30075BE3075BD037598527591007592002215
:1002C3004384015385FE43918053927F43A4035398
:1002D300A5FCD2C275A12075A30F758E05E58E30DE
:1002E300E3FB223031323334353637383941424338
:1002F3004445469002E6E54BC4540F93120290E541
:100303004B540F93120290E54AC4540F9312029078
:10031300E54A540F93120290E549C4540F93120215
:1003230090E549540F93120290E548C4540F931279
:100333000290E548540F9312029022740D1202901A
:10034300740A12029022E4936006120290A380F6CC
:10035300227812D8FE220D0A5038394C50433933D3
:1003630035312041444320646563696D6174696F6D
:100373006E206578616D706C652E0D0A0075400006
:1003830075410075420075430085C5407FFF120328
:100393005485C5447545007546007547001200E550
:1003A300120354DFEC75441075450075460075471C
:1003B300001202277544E8754580754600754700AD
:1003C30012019A7544007545107546007547001271
:1003D300022775443C7545007546007547001201B8
:1003E3000685433F85423E85413D85403C75440E2D
:1003F30075451D75460075470012019A75441075C1
:100403004527754600754700120227854337854205
:10041300368541358540342275400075410075426B
:100423000075430085C5407FFF12035485C644759C
:1004330045007546007547001200E5120354DFECD2
:1004430075441075450075460075470012022775FF
:1004530044E875458075460075470012019A754456
:100463000075451075460075470012022775443C18
:1004730075450075460075470012010685433B85A7
:10048300423A8541398540387544A475456A7546B5
:100493000075470012010685433385423285413199
:1004A3008540302275817F1202AD1202C31202A071
:1004B30090035912034912041B120380853B4385A1
:1004C3003A428539418538401200201202F67420E1
:1004D3001202908533438532428531418530401283
:1004E30000201202F67420120290853F43853E429B
:1004F300853D41853C401200201202F67420120211
:100503009085374385364285354185344012002036
:100513001202F6742012029012033E1202A0020489
:01052300B91E
:00000001FF
