:030000000204995E
:10000300C0E0C0D0C000C001C002E4F548F549F526
:100013004AF54BF54C7A20E543A2E779047840E6AC
:1000230033F608D9FA79057848E636D4F608D9F9CB
:10003300DAE5D002D001D000D0D0D0E022C0E0C0B9
:10004300D0C000C001C002E4F548F549F54AF54BBC
:10005300F54C7A20E543A2E779047840E633F608C5
:10006300D9FA79057848C0D0E6243320E70224D0B2
:1000730020E30224FDD0D033F608D9EADAD6D00241
:10008300D001D000D0D0D0E022C0E0C0D0C000C0AA
:1000930001C0027A207905C3784CE613C0D030E75B
:1000A3000224D030E30224FDF618D0D0D9EC790431
:1000B3007843E613F618D9FADADBD002D001D00080
:1000C300D0D0D0E022C0E0C0D0E5402544F540E5E3
:1000D300413545F541E5423546F542E5433547F5BA
:1000E30043D0D0D0E022C0E0C0D0C3E5409544F572
:1000F30040E5419545F541E5429546F542E5439591
:1001030047F543D0D0D0E022C0E0C0D0C3E540954E
:1001130044E5419545E5429546E54395479200D030
:10012300D0D0E022C0E0C0D0C3E5449540E545957A
:1001330041E5469542E54795439200D0D0D0E02271
:10014300C0E0C0D0C200C3E54495407014E54595B6
:1001530041700EE54695427008E54795437002D21B
:1001630000D0D0D0E0221201432000030201272255
:1001730012014320000302010B22C0E0C0F0C0D0F3
:10018300C000C001C002C003E5408544F0A4F8A943
:10019300F0E5418544F0A429F9E435F0FAE540851A
:1001A30045F0A429F9E5F03AFAE433FBE542854446
:1001B300F0A42AFAE5F03BFBE5418545F0A42AFAD1
:1001C300E5F03BFBE5408546F0A42AFAE5F03BFB6E
:1001D300E5438544F0A42BFBE5428545F0A42BFBC6
:1001E300E5418546F0A42BFBE5408547F0A42BFBB6
:1001F3008B438A4289418840D003D002D001D0008A
:10020300D0D0D0F0D0E022C0E0C0D0C000C001C048
:1002130002C003C0047C20E4F8F9FAFBC3E54033D1
:10022300F540E54133F541E54233F542E54333F526
:1002330043E833F8E933F9EA33FAEB33FBC3E895E0
:1002430044E99545EA9546EB95474013E89544F80C
:10025300E99545F9EA9546FAEB9547FB434001DCFE
:10026300BBD004D003D002D001D000D0D0D0E02244
:1002730010990280FBF5992210980280FBE59922E0
:100283007A2879FA78B8D8FED9FADAF62275BD0059
:1002930075BF0075BE3075BD0375985275910075B5
:1002A3009200224384015385FE43918053927F43FE
:1002B300A40353A5FCD2C275A12075A30F758E05A7
:1002C300E58E30E3FB22303132333435363738397B
:1002D3004142434445469002C9E54BC4540F93122F
:1002E3000273E54B540F93120273E54AC4540F9300
:1002F300120273E54A540F93120273E549C4540F73
:1003030093120273E549540F93120273E548C454E0
:100313000F93120273E548540F9312027322740D64
:10032300120273740A12027322E4936006120273B8
:10033300A380F6227812D8FE220D0A5038394C5089
:1003430043393335312041444320646563696D612A
:1003530074696F6E206578616D706C652E0D0A008F
:1003630075400075410075420075430085C7407FA5
:10037300FF12033785C7447545007546007547006E
:100383001200C8120337DFEC75441075450075463B
:100393000075470012020A7544E8754580754600EA
:1003A30075470012017D754400754510754600754B
:1003B300470012020A75443C7545007546007547AF
:1003C300001200E985433F85423E85413D85403C1F
:1003D30075440E75451D75460075470012017D7500
:1003E300441075452775460075470012020A853388
:1003F300478532468531458530441200C8854337E9
:10040300854236854135854034227540007541006B
:1004130075420075430085C7407FFF12033785F49B
:10042300447545007546007547001200C81203372E
:10043300DFEC7544107545007546007547001202E0
:100443000A7544E875458075460075470012017DBD
:1004530075440075451075460075470012020A750C
:10046300443C7545007546007547001200E9854315
:100473003B85423A8541398540387544A475456AC0
:100483007546007547001200E9854333854232857E
:1004930041318540302275817F1202901202A612EB
:1004A300028390033C12032C12040D120363853B59
:1004B30043853A428539418538401200031202D9F7
:1004C300742012027385334385324285314185306E
:1004D300401200031202D97420120273853F438530
:1004E3003E42853D41853C401200031202D97420EF
:1004F3001202738537438536428535418534401270
:1005030000031202D9742012027312032112028310
:030513000204AB34
:00000001FF
