:0300000002049D5A
:10000300C000784AD8FED00022C000C001790A7827
:10001300B8D8FED9FADAF6D001D00022D29612006F
:1000230003C29612000322A2E792B1A2E69292A221
:10003300E59293A2E4929412001FA2E392B1A2E28A
:100043009292A2E19293A2E0929412001F22D2A074
:1000530002002AC2A002002AC296C297C0027A28CE
:1000630012000CD00274331200567433120056740B
:10007300321200567428120056740C120056740182
:10008300120056C0027A0212000CD00222E49360DE
:1000930006120051A380F62244404480020056C059
:1000A300E0E8C4540F4430120051E8540F443012B6
:1000B3000051D0E02210990280FBF599221098029A
:1000C30080FBE5991200B822740D1200B8740A126D
:1000D30000B822C0F01200C0541F20E402240954C7
:1000E3000FC4F5F01200C0541F20E4022409540F7A
:1000F30045F0D0F022C0E01200C05401F583120095
:10010300D6F582D0E02230313233343536373839C0
:1001130061626364656600C0E0C082C083C0E09032
:100123000109C4540F931200B8D0E0540F93120086
:10013300B8D083D082D0E022C0E0C082C083E58300
:10014300C082900109540F931200B8D0E012011A33
:10015300D083D082D0E0220D0A4164647265737348
:100163003A20000D0A56616C75653A20007A2879A9
:10017300FA78B8D8FED9FADAF62275BD0075BF0051
:1001830075BE3075BD037598527591007592002246
:10019300E49360061200B8A380F6228583F1F5F29A
:1001A3008582F3E5F130E7FB2275F131F5F275F362
:1001B30000E5F130E7FB228583F18582F3E5F13039
:1001C300E7FBE5F22290015A1201931200F8C08274
:1001D300C0839001661201931200D6D083D082129D
:1001E300019E22900000E582540F70101200CB1282
:1001F300013B743A1200B874201200B81201BAF528
:10020300F0E582540F2430F8E5F0C3947E500BE5FB
:10021300F0C394204004A6F08002762EE5F012018C
:100223001A74201200B8A3E582540F700B7830794A
:1002330010E61200B808D9F9E58320E10280A7127D
:1002430000CB1200CB2274FF1201AC1200CB229020
:1002530001661201931200D61201AC1200CB220DDB
:100263000A546573742070617465726E2000206592
:1002730072726F72005061737321009002621201F7
:1002830093E5F012011A743A1200B874201200B800
:100293007E007F00E5F01201AC9000001201BAC3AA
:1002A30095F0700280077D010EEE70010FA3E583C8
:1002B30030E1E9EE4F602474301200B87478120014
:1002C300B88E828F8312013B900271120193BE019B
:1002D30004BF00012274731200B822900278120145
:1002E30093220D0A0D0A5741524E494E473A204D6B
:1002F300454D4F5259204552524F52532044455475
:100303004543544544210D0A007D0075F000120257
:100313007E75F05512027E75F0AA12027E75F00FFB
:1003230012027E75F0F012027E75F05A12027E758B
:10033300F0A512027E75F00112027E75F002120220
:100343007E75F00412027E75F00812027E75F010BD
:1003530012027E75F02012027E75F04012027E7545
:10036300F08012027E75F0FE12027E75F0FD12021D
:100373007E75F0FB12027E75F0F712027E75F0EFC8
:1003830012027E75F0DF12027E75F0BF12027E75D7
:10039300F07F12027EBD01069002E5120193120066
:1003A300CB1200CB220D0A547970652073747269E5
:1003B3006E672028456E74657220746F2066696EBF
:1003C300697368293A200090015A1201931200F8C8
:1003D300C082C0839003A8120193D083D0821200FD
:1003E300C0F5F0640D600C640A6008E5F012019E2C
:1003F300A380EB1200CB225038394C5043393335AC
:100403003120454550524F4D20746573740D0A20B9
:100413002020312920577269746520627974650D33
:100423000A202020322920446973706C6179206D81
:10043300656D6F72790D0A20202033292045726182
:100443007365206D656D6F72790D0A202020342944
:100453002046696C6C206D656D6F72790D0A2020E2
:100463002035292054657374206D656D6F72790D85
:100473000A2020203629205772697465207374720C
:10048300696E670D0A4F7074696F6E3A20004545B7
:1004930050524F4D20546573740075817F758400ED
:1004A30075850075910075920075A40075A500759A
:1004B300B10075B20012017D12005BC0E07401143B
:1004C30012009DD0E0C083C082C0E090049112006E
:1004D30090D0E0D082D0831201709003FA1201937E
:1004E3001200C0C0E01200CBD0E0B431061201C844
:1004F3000204DDB432061201E60204DDB43306124F
:1005030002490204DDB434061202520204DDB4359A
:100513000612030C0204DDB436031203CA0204DD1F
:00000001FF
