:03000000020138C2
:10000300C000784AD8FED00022C000C001790A7827
:10001300B8D8FED9FADAF6D001D00022D2B1120054
:1000230003C2B112000322A2E792A3A2E692A2A204
:10003300E592A1A2E492A012001FA2E392A3A2E27E
:1000430092A2A2E192A1A2E092A012001F22D28763
:1000530002002AC28702002AC2B1C2B0C0027A28B3
:1000630012000CD00274331200567433120056740B
:10007300321200567428120056740C120056740182
:10008300120056C0027A0212000CD00222E49360DE
:1000930006120051A380F62244404480020056C059
:1000A300E0E8C4540F4430120051E8540F443012B6
:1000B3000051D0E02210990280FBF599221098029A
:1000C30080FBE599227A2879FA78B8D8FED9FADA4A
:1000D300F62275BD0075BF0075BE3075BD037598FA
:1000E3005275910075920022E49360061200B8A342
:1000F30080F6228583F1F5F28582F3E5F130E7FBA3
:10010300228583F18582F3E5F130E7FBE5F22245B1
:100113004550524F4D2054657374000D0A454550A8
:10012300524F4D20546573740D0A005041535300D0
:100133004641494C0075817F758400758500759132
:100143000075920075A40075A50075B10075B20025
:100153001200D512005BC0E074011412009DD0E0C0
:10016300C083C082C0E0900112120090D0E0D08220
:10017300D0831200C890011E1200EB90001074553A
:100183001200F6900010120104B4552F900025744C
:10019300AA1200F6900025120104B4AA1EC0E0744E
:1001A300011412009BD0E0C083C082C0E090012EF6
:1001B300120090D0E0D082D083801CC0E074011480
:1001C30012009BD0E0C083C082C0E09001331200D4
:0901D30090D0E0D082D08380FEC0
:00000001FF
