:0300000002036296
:10000300C0E0C0D0C000C001C002E4F538F539F546
:100013003AF53BF53C7A20E533A2E779047830E6FC
:1000230033F608D9FA79057838E636D4F608D9F9DB
:10003300DAE5D002D001D000D0D0D0E022C0E0C0B9
:10004300D0C000C001C002E4F538F539F53AF53BFC
:10005300F53C7A20E533A2E779047830E633F608F5
:10006300D9FA79057838C0D0E6243320E70224D0C2
:1000730020E30224FDD0D033F608D9EADAD6D00241
:10008300D001D000D0D0D0E022C0E0C0D0C000C0AA
:1000930001C0027A207905C3783CE613C0D030E76B
:1000A3000224D030E30224FDF618D0D0D9EC790431
:1000B3007833E613F618D9FADADBD002D001D00090
:1000C300D0D0D0E022C0E0C0D0E5302534F530E513
:1000D300313535F531E5323536F532E5333537F53A
:1000E30033D0D0D0E022C0E0C0D0C3E5309534F5A2
:1000F30030E5319535F531E5329536F532E5339511
:1001030037F533D0D0D0E022C0E0C0D0C3E530957E
:1001130034E5319535E5329536E53395379200D0A0
:10012300D0D0E022C0E0C0D0C3E5349530E53595AA
:1001330031E5369532E53795339200D0D0D0E022C1
:10014300C0E0C0D0C200C3E53495307014E53595E6
:1001530031700EE53695327008E53795337002D26B
:1001630000D0D0D0E0221201432000030201272255
:1001730012014320000302010B22C0E0C0F0C0D0F3
:10018300C000C001C002C003E5308534F0A4F8A963
:10019300F0E5318534F0A429F9E435F0FAE530854A
:1001A30035F0A429F9E5F03AFAE433FBE532853476
:1001B300F0A42AFAE5F03BFBE5318535F0A42AFAF1
:1001C300E5F03BFBE5308536F0A42AFAE5F03BFB8E
:1001D300E5338534F0A42BFBE5328535F0A42BFB06
:1001E300E5318536F0A42BFBE5308537F0A42BFBF6
:1001F3008B338A3289318830D003D002D001D000CA
:10020300D0D0D0F0D0E022C0E0C0D0C000C001C048
:1002130002C003C0047C20E4F8F9FAFBC3E53033E1
:10022300F530E53133F531E53233F532E53333F586
:1002330033E833F8E933F9EA33FAEB33FBC3E895F0
:1002430034E99535EA9536EB95374013E89534F85C
:10025300E99535F9EA9536FAEB9537FB433001DC3E
:10026300BBD004D003D002D001D000D0D0D0E02244
:1002730010990280FBF5992210980280FBE59922E0
:100283007A2879FA78B8D8FED9FADAF62275BD0059
:1002930075BF0075BE3075BD0375985275910075B5
:1002A3009200224384015385FE43918053927F43FE
:1002B300A40353A5FCD2C275A12075A30F758E05A7
:1002C300E58E30E3FB22303132333435363738397B
:1002D3004142434445469002C9E53BC4540F93123F
:1002E3000273E53B540F93120273E53AC4540F9320
:1002F300120273E53A540F93120273E539C4540F93
:1003030093120273E539540F93120273E538C45400
:100313000F93120273E538540F93120273740D1284
:100323000273740A12027322E4936006120273A327
:1003330080F6227812D8FE220D0A5038394C5043E9
:10034300393335312041444320646563696D6174F9
:10035300696F6E206578616D706C652E0D0A00758E
:10036300817F1202901202A612028390033B1203B2
:100373002B75300075310075320075330085C5303B
:100383007FFF12033685C534753500753600753722
:10039300001200C8120336DFEC7534107535007592
:1003A300360075370012020A7534E87535807536E4
:1003B3000075370012017D7534FF75350F753600F2
:1003C30075370012020A7534B3753500753600753A
:1003D30037001200E91200031202D912028380913E
:00000001FF
