:100000000200E110990280FBF5992210980280FB12
:10001000E599227A2879FA78B8D8FED9FADAF62260
:1000200075BD0075BF0075BE3075BD0375985275FE
:100030009100759200224384015385FE43918053C1
:10004000927F43A40353A5FCD2C275A12075A30FD0
:10005000758E05E58E30E3FB223031323334353690
:1000600037383941424344454674301200037478AE
:10007000120003900059E5F0C4540F93120003E5F9
:10008000F0540F93120003742012000322E49360D3
:1000900006120003A380F6220D0A5038394C504353
:1000A00039333531204144433020746573742070F6
:1000B000726F6772616D2E2020496E7075742070AA
:1000C000696E73206172652050312E372C205030BC
:1000D0002E302C2050322E312C2050322E300D0A52
:1000E0000075817F120020120036120013900098D4
:1000F00012008D740D12000385C5F012006985C6CB
:10010000F012006985C7F012006985F4F0120069E9
:0501100012001380DE67
:00000001FF
