:030000000207599B
:0100030032CA
:01000B0032C2
:0100130032BA
:01001B0032B2
:0100230032AA
:03005B000202E5B9
:10005E00C0E0C0D0C000C001C002E4F53CF53DF5E3
:10006E003EF53FF5407A20E537A2E779047834E68D
:10007E0033F608D9FA7905783CE636D4F608D9F97C
:10008E00DAE5D002D001D000D0D0D0E022C0E0C05E
:10009E00D0C000C001C002E4F53CF53DF53EF53F91
:1000AE00F5407A20E537A2E779047834E633F6088E
:1000BE00D9FA7905783CC0D0E6243320E70224D063
:1000CE0020E30224FDD0D033F608D9EADAD6D002E6
:1000DE00D001D000D0D0D0E022C0E0C0D0C000C04F
:1000EE0001C0027A207905C37840E613C0D030E70C
:1000FE000224D030E30224FDF618D0D0D9EC7904D6
:10010E007837E613F618D9FADADBD002D001D00030
:10011E00D0D0D0E022C0E0C0D0E5342538F534E5AB
:10012E00353539F535E536353AF536E537353BF5BE
:10013E0037D0D0D0E022C0E0C0D0C3E5349538F53A
:10014E0034E5359539F535E536953AF536E5379595
:10015E003BF537D0D0D0E022C0E0C0D0C3E5349517
:10016E0038E5359539E536953AE537953B9200D029
:10017E00D0D0E022C0E0C0D0C3E5389534E5399543
:10018E0035E53A9536E53B95379200D0D0D0E02252
:10019E00C0E0C0D0C200C3E53895347014E539957F
:1001AE0035700EE53A95367008E53B95377002D2FC
:1001BE0000D0D0D0E02212019E2000030201822244
:1001CE0012019E20000302016622C0E0C0F0C0D0E2
:1001DE00C000C001C002C003E5348538F0A4F8A900
:1001EE00F0E5358538F0A429F9E435F0FAE53485E3
:1001FE0039F0A429F9E5F03AFAE433FBE53685380F
:10020E00F0A42AFAE5F03BFBE5358539F0A42AFA8D
:10021E00E5F03BFBE534853AF0A42AFAE5F03BFB2A
:10022E00E5378538F0A42BFBE5368539F0A42BFB9A
:10023E00E535853AF0A42BFBE534853BF0A42BFB8A
:10024E008B378A3689358834D003D002D001D0005E
:10025E00D0D0D0F0D0E022C0E0C0D0C000C001C0ED
:10026E0002C003C0047C20E4F8F9FAFBC3E5343382
:10027E00F534E53533F535E53633F536E53733F513
:10028E0037E833F8E933F9EA33FAEB33FBC3E89591
:10029E0038E99539EA953AEB953B4013E89538F8ED
:1002AE00E99539F9EA953AFAEB953BFB433401DCD3
:1002BE00BBD004D003D002D001D000D0D0D0E022E9
:1002CE0075CDFF75CC5975CFFF75CE5975F9807503
:1002DE00C980D2ECD2C82275E900D2A6C0E0C0D047
:1002EE00E53045314532601574FF1530B5300715D0
:1002FE0031B5310215321203A4F5F58004C2C8D20D
:10030E00A4D0D0D0E0C2A632758400758500759158
:10031E000075920075A40075A50075B10075B20048
:10032E002210990280FBF5992210980280FBE59924
:10033E002275BD0075BF0075BE7075BD03759852F0
:10034E005391FC5392FC2243841043851075A128CF
:10035E0075970475F5802290FFDEE04408F0225375
:10036E00A4CB43A53443A40853A5F775E2D0227A53
:10037E005979DC78E6D8FED9FADAF6227A5979C8B4
:10038E0078A0D8FED9FADAF6227A5079C87864D8ED
:10039E00FED9FADAF622F5E3E5E130E7FBF5E1E521
:1003AE00E322C2C8D2A475340075350075360075C7
:1003BE00370085333412005E753E00753C00E53D16
:1003CE00540F753D00F53C1200E7853442E542B40A
:1003DE000003D2022275340075350075360075376C
:1003EE0000854234753800753900753A00753B004A
:1003FE007538887539901201D875383875399775F2
:10040E003A08753B00120123C2A474031203A4E53B
:10041E00361203A4E5351203A4E5341203A4753293
:10042E000075319075308874001203A4D2C822C2B0
:10043E00C8D2A47534007535007536007537008541
:10044E00333412005E753E00753D00E53CC4540F1A
:10045E00F53C1200E7853442E542B40003D2032294
:10046E00B401030204CE753400753500753600757F
:10047E003700854234753800753900753A00753B82
:10048E000075382475395E1201D875384075397E7D
:10049E00753A05753B00120123C2A474031203A41E
:1004AE00E5361203A4E5351203A4E5341203A47550
:1004BE0032007531507530C374001203A4D2C822B5
:1004CE00C2C8D2A475340075350075360075370074
:1004DE0085333412005E753E00753D00E53C540FC9
:1004EE00F53C1200E7853441E54175340075350061
:1004FE0075360075370085413475380075390075CD
:10050E003A00753B007538FC7539531201D87538B1
:10051E00B07539A7753A02753B0012012375380084
:10052E00753900753A00753B008543381201237505
:10053E004300C2A474031203A4E5361203A4E535E6
:10054E001203A4E5341203A47532007531537530CD
:10055E00FC74001203A4D2C8D20122300103C201DE
:10056E0022C2C8D2A47534007535007536007537B1
:10057E000085333412005E753E00753D00E53C5437
:10058E000FF53C1200E7853441E541B400012275B8
:10059E003400753500753600753700854134753871
:1005AE0000753900753A00753B0075383075394362
:1005BE001201D87538FF753900753A00753B001277
:1005CE000123C2A474031203A4E5361203A4E53575
:1005DE001203A4E5341203A475320075313E753052
:1005EE00A474001203A4D2C8221203B02002031274
:1005FE00037DC20212043D20030312038AC20312BA
:10060E000569120397227534D075354875360A750B
:10061E0037007538B8753988753A00753B00120782
:10062E002E12037D120397227534707535D57536EB
:10063E000A75370075380A75392B753A00753B0007
:10064E0012072E1203972275344C75352C75360B06
:10065E00753700753868753942753A00753B00126A
:10066E00072E12037D2275340875358D75360B7580
:10067E003700753878753969753A00753B00120781
:10068E002E12037D227534F075350D75360C7537C7
:10069E00007538A8753961753A00753B0012072E42
:1006AE0012037D227534F075358A75360C75370058
:1006BE00753878753969753A00753B0012072E1238
:1006CE00037D227534A875351375360D7537007593
:1006DE0038A8753961753A00753B0012072E120362
:1006EE007D2275340875358175360D753700753870
:1006FE009875393A753A00753B0012072E12038A27
:10070E00227534107535D375360D7537007538B0C2
:10071E00753936753A00753B0012072E1203972273
:10072E00C2C8D2A4C2A474031203A4E5361203A451
:10073E00E5351203A4E5341203A475320085393170
:10074E0085383074001203A4D2C82275817F12033B
:10075E001612033F1203551202CE12036DC2C8D2F7
:10076E00AF753300754300C201C202C20320B0FD53
:10077E0030B0FD1206741206931206147533DE1293
:10078E0005F71206361206551206741206F01206F8
:10079E001475338C1205F712063612065575338C06
:1007AE001205F775339A1205F77533A51205F7750D
:1007BE0033B01205F77533BB1205F77533C6120544
:1007CE00F77533D91205F77533761205F77533774A
:1007DE001205F77533721205F77533731205F77537
:1007EE00336F1205F77533701205F77533711205F5
:0A07FE00F77533771205F702077B49
:00000001FF
