:030000000205A551
:0100030032CA
:01000B0032C2
:0100130032BA
:01001B0032B2
:0100230032AA
:03005B000202E5B9
:10005E00C0E0C0D0C000C001C002E4F53CF53DF5E3
:10006E003EF53FF5407A20E537A2E779047834E68D
:10007E0033F608D9FA7905783CE636D4F608D9F97C
:10008E00DAE5D002D001D000D0D0D0E022C0E0C05E
:10009E00D0C000C001C002E4F53CF53DF53EF53F91
:1000AE00F5407A20E537A2E779047834E633F6088E
:1000BE00D9FA7905783CC0D0E6243320E70224D063
:1000CE0020E30224FDD0D033F608D9EADAD6D002E6
:1000DE00D001D000D0D0D0E022C0E0C0D0C000C04F
:1000EE0001C0027A207905C37840E613C0D030E70C
:1000FE000224D030E30224FDF618D0D0D9EC7904D6
:10010E007837E613F618D9FADADBD002D001D00030
:10011E00D0D0D0E022C0E0C0D0E5342538F534E5AB
:10012E00353539F535E536353AF536E537353BF5BE
:10013E0037D0D0D0E022C0E0C0D0C3E5349538F53A
:10014E0034E5359539F535E536953AF536E5379595
:10015E003BF537D0D0D0E022C0E0C0D0C3E5349517
:10016E0038E5359539E536953AE537953B9200D029
:10017E00D0D0E022C0E0C0D0C3E5389534E5399543
:10018E0035E53A9536E53B95379200D0D0D0E02252
:10019E00C0E0C0D0C200C3E53895347014E539957F
:1001AE0035700EE53A95367008E53B95377002D2FC
:1001BE0000D0D0D0E02212019E2000030201822244
:1001CE0012019E20000302016622C0E0C0F0C0D0E2
:1001DE00C000C001C002C003E5348538F0A4F8A900
:1001EE00F0E5358538F0A429F9E435F0FAE53485E3
:1001FE0039F0A429F9E5F03AFAE433FBE53685380F
:10020E00F0A42AFAE5F03BFBE5358539F0A42AFA8D
:10021E00E5F03BFBE534853AF0A42AFAE5F03BFB2A
:10022E00E5378538F0A42BFBE5368539F0A42BFB9A
:10023E00E535853AF0A42BFBE534853BF0A42BFB8A
:10024E008B378A3689358834D003D002D001D0005E
:10025E00D0D0D0F0D0E022C0E0C0D0C000C001C0ED
:10026E0002C003C0047C20E4F8F9FAFBC3E5343382
:10027E00F534E53533F535E53633F536E53733F513
:10028E0037E833F8E933F9EA33FAEB33FBC3E89591
:10029E0038E99539EA953AEB953B4013E89538F8ED
:1002AE00E99539F9EA953AFAEB953BFB433401DCD3
:1002BE00BBD004D003D002D001D000D0D0D0E022E9
:1002CE0075CDFE75CCB275CFFE75CEB275F9807553
:1002DE00C980D2ECD2C82275E900D2A6C0E0C0D047
:1002EE00E53045314532601574FF1530B5300715D0
:1002FE0031B53102153212037DF5F58004C2C8D234
:10030E00A4D0D0D0E0C2A632758400758500759158
:10031E000075920075A40075A50075B10075B20048
:10032E002210990280FBF5992210980280FBE59924
:10033E002275BD0075BF0075BE7075BD03759852F0
:10034E005391FC5392FC2243841043851075A128CF
:10035E0075970475F5802290FFDEE04408F0225375
:10036E00A4CB43A53443A40853A5F775E2D022F5D8
:10037E00E3E5E130E7FBF5E1E5E322C2A474061202
:10038E00037DD2A422C2A4740512037D74551203F8
:10039E007DD2A420E0EF220010203040506070810A
:1003AE0091A1B1C1D1E1F112023222524272629395
:1003BE0083B3A3D3C3F3E32434041464744454A565
:1003CE00B58595E5F5C5D53626160676665646B735
:1003DE00A79787F7E7D7C74858687808182838C905
:1003EE00D9E9F98999A9B95A4A7A6A1A0A3A2ADBD5
:1003FE00CBFBEB9B8BBBAB6C7C4C5C2C3C0C1CEDA5
:10040E00FDCDDDADBD8D9D7E6E5E4E3E2E1E0EFF74
:10041E00EFDFCFBFAF9F8F9181B1A1D1C1F1E110BD
:10042E00003020504070608393A3B3C3D3E3F30234
:10043E0012223242526272B5A59585F5E5D5C534C4
:10044E0024140474645444A7B78797E7F7C7D726D4
:10045E0036061666764656D9C9F9E99989B9A95864
:10046E0048786818083828CBDBEBFB8B9BABBB4A74
:10047E005A6A7A0A1A2A3AFDEDDDCDBDAD9D8D7C04
:10048E006C5C4C3C2C1C0CEFFFCFDFAFBF8F9F6E14
:10049E007E4E5E2E3E0E1E0021426384A5C6E708E8
:1004AE00294A6B8CADCEEF31107352B594F7D63915
:1004BE00187B5ABD9CFFDE62432001E6C7A4856A05
:1004CE004B2809EECFAC8D53721130D7F695B45B35
:1004DE007A1938DFFE9DBCC4E586A740610223CCA5
:1004EE00ED8EAF48690A2BF5D4B79671503312FDD5
:1004FE00DCBF9E79583B1AA687E4C522036041AE45
:10050E008FECCD2A0B684997B6D5F4133251709FF4
:10051E00BEDDFC1B3A597888A9CAEB0C2D4E6F80B4
:10052E00A1C2E304254667B998FBDA3D1C7F5EB194
:10053E0090F3D235147756EACBA8896E4F2C0DE284
:10054E00C3A08166472405DBFA99B85F7E1D3CD3B4
:10055E00F291B0577615344C6D0E2FC8E98AAB4424
:10056E00650627C0E182A37D5C3F1EF9D8BB9A7554
:10057E00543716F1D0B3922E0F6C4DAA8BE8C926C4
:10058E00076445A283E0C11F3E5D7C9BBAD9F81774
:10059E0036557493B2D1F075817F1203161203652E
:1005AE0012033F1203551202CE12036DC2C8D2AF10
:1005BE0020980C20B0FA30B0FD1205E50205BE12EF
:1005CE000337B423EBC2C8D2A4120337E53C540F51
:1005DE001200E785344122C2C8D2A4C2A474031209
:1005EE00037D740012037D740012037D74FF1203E9
:1005FE007D75320075313E7530A4740012037DD2C4
:10060E00C822B43024C2A4749F12037D7455120301
:10061E007D12032F745512037D12032F745512038E
:10062E007D12032FD2A40205BEB43117120389C264
:10063E00A474C712037DD2A4120393740112032F64
:10064E000205BEB43235120389C2A4740212037DB0
:10065E0012033712037D12033712037D1203371272
:10066E00037D120337F812033712037DD8F8D2A494
:10067E00120393740112032F0205BEB4332CC2A4CD
:10068E00740312037D12033712037D120337120314
:10069E007D12033712037D120337F8745512037D52
:1006AE0012032FD8F6D2A40205BEB43436C2C8D275
:1006BE00A4C2A4740312037D12033712037D120326
:1006CE003712037D12033712037D120337F53212F0
:1006DE000337F531120337F530740012037DD2C89B
:1006EE000205BEB4355C120337FD120337FC12034C
:1006FE0037FB0B0C0DE4FFFEC2A4740312037DE462
:10070E0012037DE412037DE412037DF5E38019E507
:10071E00E130E7FBF5E1E5E3F5E36FF89003A59330
:10072E006EFFE89004A593FEDBE5DCE3DDE1E5E199
:10073E0030E7FBF5E1D2A4EF12032FEE12032F02E6
:10074E0005BEB43635120389C2A4740212037D129B
:10075E00033712037D12033712037D120337120380
:10076E007D120337F97800E912037DD8FAD2A4126C
:0D077E000393740112032F0205BE0205BE95
:00000001FF
