:030000000202E514
:10000300C000784AD8FED00022C000C001790A7827
:10001300B8D8FED9FADAF6D001D00022D28712007E
:1000230003C28712000322A2E79294A2E69293A24C
:10003300E59292A2E492B112001FA2E39294A2E28B
:100043009293A2E19292A2E092B112001F22D28572
:1000530002002AC28502002AC287C286C0027A2809
:1000630012000CD00274331200567433120056740B
:10007300321200567428120056740C120056740182
:10008300120056C0027A0212000CD00222E49360DE
:1000930006120051A380F62244404480020056C059
:1000A300E0E8C4540F4430120051E8540F443012B6
:1000B3000051D0E02210990280FBF599221098029A
:1000C30080FBE599227A2879FA78B8D8FED9FADA4A
:1000D300F62275BD0075BF0075BE3075BD037598FA
:1000E30052759100759200224384015385FE43911A
:1000F3008053927FD2C275A12075A303758E05E547
:100103008E30E3FB223031323334353637383941E0
:10011300424344454674301200B874781200B890D4
:100123000108E5F0C4540F931200B8E5F0540F939F
:100133001200B874201200B822E49360061200B8CB
:10014300A380F622D206D205D204D203D202D20170
:10015300D200C3E5C594A34003C20622C3E5C594F8
:10016300914003C20522C3E5C594784003C204222B
:10017300C3E5C594624003C20322C3E5C59444406A
:1001830003C20222C3E5C594334003C20122C3E57F
:10019300C594134003C2002222D207D208D209D247
:1001A3000AD20BD20CD20DC3E5C694C44003C207D6
:1001B30022C3E5C694AF4003C20822C3E5C69490A8
:1001C3004003C20922C3E5C694714003C20A22C395
:1001D300E5C694524003C20B22C3E5C694334003E1
:1001E300C20C22C3E5C694144003C20D2222C0E010
:1001F30074091412009BD0E07430A207340012007B
:10020300517430A20834001200517430A209340032
:100213001200517430A20A34001200517430A20B40
:1002230034001200517430A20C34001200517430A7
:10023300A20D340012005122C0E074011412009B7D
:10024300D0E07430A20634001200517430A2053499
:10025300001200517430A20434001200517430A211
:100263000334001200517430A2023400120051749E
:1002730030A20134001200517430A2003400120085
:100283005122414443302070757368206275747441
:100293006F6E73000D0A41444330207075736820FC
:1002A300627574746F6E732E2020546865207075A8
:1002B300736820627574746F6E7320766F6C7461EB
:1002C3006765206469766964657220697320636F6A
:1002D3006E6E656374656420746F2050312E370D24
:1002E3000A0075817F75840075850075910075928C
:1002F3000075A40075A50075B10075B2001200D594
:100303001200EB12005BC0E074011412009DD0E0F8
:10031300C083C082C0E0900285120090D0E0D082FA
:10032300D0831200C890029712013C740D1200B8DA
:1003330085C5F012011885C6F01201181201471283
:0A034300023B12019C1201F180E15F
:00000001FF
